:100000000C94EE010C940B020C940B020C940B025A
:100010000C940B020C940B020C940B020C940B022C
:100020000C940B020C940B020C94032F0C94D72FFE
:100030000C944D290C940B020C940B020C940B02A3
:100040000C940B020C940B020C940B020C940B02FC
:100050000C940B020C94F0290C940B020C940B02E0
:100060000C940B020C940B020C940B020C940B02DC
:100070000C940B020C940B020C940B020C940B02CC
:100080000C940B020C940B020C940B020C940B02BC
:100090000C940B020C940B020C940B020C940B02AC
:1000A0000C940B020C940B020C940B0200005F00EA
:1000B00060006100560000005C005D005E005700BB
:1000C000000059005A005B005500A800015862006A
:1000D000010028000000C25CCA5CC95C005C000032
:1000E0000000C65CC55C000000000000C85CC75C86
:1000F000000000000100CC5CCB5C000000010101AD
:1001000001010101010102020202020202020203D4
:1001100003030303030303040404040404040505A4
:100120000505050606060606070707070708080867
:1001300008090909090A0A0A0B0B0B0C0C0C0D0D16
:100140000D0E0E0E0F0F0F101011111112121313AE
:100150001414151516161717181819191A1A1B1B27
:100160001C1D1D1E1E1F2020212222232424252683
:1001700026272829292A2B2C2D2D2E2F30313232BB
:10018000333435363738393A3B3C3D3E3F404142C7
:10019000434445464748494A4C4D4E4F50515354AD
:1001A000555658595A5B5D5E5F6162646566686961
:1001B0006B6C6D6F7072737577787A7B7D7E8082E1
:1001C000838587888A8C8E8F91939596989A9C9E2A
:1001D000A0A2A3A5A7A9ABADAFB1B3B5B7BABCBE3A
:1001E000C0C2C4C6C9CBCDCFD1D4D6D8DBDDDFE207
:1001F000E4E7E9EBEEF0F3F5F8FAFDFF00000000AC
:10020000000000002A2B2800000000000000000071
:100210000000000000000029000000002C1E342017
:10022000212224342627252E362D3738271E1F203D
:100230002122232425263333362E37381F04050682
:100240000708090A0B0C0D0E0F10111213141516C6
:100250001718191A1B1C1D2F3130232D35040506C4
:100260000708090A0B0C0D0E0F10111213141516A6
:100270001718191A1B1C1D2F3130354C00000000B7
:10028000000000000000000000000000000000006E
:10029000000000000000000000000000000000005E
:1002A0007E0F00D4FFFFFFC700000078100364003A
:1002B00075006D00620070006100640000001603AC
:1002C00069006D00630068006900700077006F00CE
:1002D0006F00640000000403090409025B000301CD
:1002E00000A0FA0904000001030101000921110125
:1002F00000012240000705810308000109040100F4
:10030000020300000009211101000122220007055B
:1003100082032000010705030320000109040200F5
:10032000010300000009211101000122320007052C
:1003300084032000011201000200000008AFDE1358
:10034000091000010200010660FF0961A1010962B4
:10035000150026FF00952075088102096315002607
:10036000FF00952075089102C005010980A1018553
:100370000319012AB700150126B7009501751081F0
:1003800000C0050C0901A101850419012AA002156C
:100390000126A002950175108100C005010906A182
:1003A00001050719E029E715002501950875018168
:1003B000029501750881010507190029FF1500261E
:1003C000FF009506750881000508190129059505A6
:1003D00075019102950175039101C00011241FBEA2
:1003E000CFEFDAE0DEBFCDBF12E0A0E0B1E0E2EB9C
:1003F000F6E602C005900D92A030B107D9F723E0D0
:10040000A0E0B2E001C01D92A03AB207E1F70E945D
:100410000C110C9411330C940000219A239A269A03
:100420000E940B0D089529982B982E980895CF932C
:10043000C82F0E94A10380FF09C0299A81FF08C02C
:100440002B9A8C2F0E945B07CF9108952998F6CFA5
:100450002B98F7CF299A2B9A2E9A2FEF87EE93E0BD
:10046000215080409040E1F700C0000029982B986F
:100470002E982FEF87EE93E0215080409040E1F7D7
:1004800000C00000299A2B9A2E9A2FEF87EE93E056
:10049000215080409040E1F700C0000029982B983F
:1004A0002E980E94C60F0895CF93C82F0E94B603BE
:1004B000882329F09C2F9170C0FD03C02E9ACF9104
:1004C00008952E98892FFBCFCF93DF93D62F0E94CC
:1004D0008002C82F882361F0809111020E94A1033D
:1004E000811106C0DD2341F089EA0E94A504CD2FC9
:1004F0008C2FDF91CF9108958AEA0E94A504F8CF4E
:10050000CF93C62F809111020E94A103811109C0CF
:1005100089EAC11101C08AEA0E94A50481E0CF9155
:100520000895CC2319F00E94BD1FF8CF0E94CD1F63
:10053000F5CF82E0089581E0089581E008950E945A
:100540009D02089508950E94A2020895A5E0B0E0DA
:10055000ECEAF2E00C94033249835A8330910702AB
:1005600089819A81311119C0662399F0222389F07B
:100570000E942208182F682F89819A810E94FE0705
:1005800069817A81812F0E94CD262596E3E00C9423
:100590001F320E941008182FF3CF0E942208698191
:1005A0007A81F1CFFC01262F4081518162817381D4
:1005B00084810E94A602089581E00895CF93DF937D
:1005C000EC0160E00E94D202BE010E94A302DF9112
:1005D000CF910895E1E0F0E0DF0102C0AA0FBB1F58
:1005E0006A95E2F7BD01DF0102C0AA0FBB1F4A9561
:1005F000E2F76A2B01C0EE0F2A95EAF7962F9823AF
:10060000961302C08E2B0895E0958E230895242F13
:10061000462F682F809111020E94EA020E945E0715
:1006200008950E942A0208950E94C80F08950E940A
:10063000F3060E9413022FEF84E39CE021508040D8
:100640009040E1F700C0000008950E9417030E9447
:10065000142A08950E9417030E94252A08950F93D3
:100660001F93CF93DF938C0161E00E94D202EC01D3
:10067000B8010E94D221811106C080E0DF91CF91A4
:100680001F910F910895B801CE010E949F02882307
:10069000A1F3B801CE010E941328882371F3B80199
:1006A000CE010E944323882341F3B801CE010E946A
:1006B0008527882311F3B801CE010E94A920882341
:1006C000E1F2F8018281882361F0CA35FDE5DF0798
:1006D00001F158F4C115ECE5DE0791F0CE3DDC45A3
:1006E00091F0C8010E949B02C9CFCC358DE5D80797
:1006F00069F090F0C73ADD45A1F70E942A03BDCF0B
:100700000E942503BACF0E94DB0CF7CF0E94150C84
:10071000E8CF0E941F0CE5CF0E94230CE2CF0E947D
:100720002A290E94201E0E94C20381E00E94491FC4
:1007300008950E94C60380E00E94491F0E942F294D
:100740000895982F92959F7011F0892F94E0282F8B
:100750002695269511F09E5F822F869509F09F5F62
:10076000892F089508950E94B203089581E00895A5
:100770000895CF93C82F0E94B3038C2F0E94540278
:10078000CF91089580E00E94B90308950E946F28D8
:100790000E94B9030895CF930E946F28C82F8091BB
:1007A00002028C1779F0C09302020E94B92960936B
:1007B00003027093040280930502909306028C2F2B
:1007C0000E94B903CF910895ABE0B0E0EAEEF3E008
:1007D0000C9404324F83588769877A878B8761111D
:1007E0000E94600B1E821D8285E0FE013796DE01AD
:1007F000119601900D928A95E1F78C819D81892B4C
:1008000061F449815A816B817C818D819E810E9436
:10081000890A2B96E2E00C94203289819A818923FF
:100820008F3F79F3CE0101960E94DC028111E9CF5E
:10083000F0CFFC01808191810E944F080895CF93F1
:10084000C82F8823B9F08CEF8C0F813AA8F46C2F55
:1008500080914801909149010E94C528882329F080
:100860008C2F0E94200B0E94810B8C2F0E94180B52
:100870000E94810BCF91089580E28C0F883048F45C
:10088000C77081E001C0880FCA95EAF70E94430B48
:10089000EFCFEBE5EC0FE33040F4F0E0E057FE4F34
:1008A000808190E00E948728E5CFC85AC73110F7B1
:1008B000EC2FF0E0EE0FFF1FEE59FE4F808191818B
:1008C0000E949D28D7CF882339F19CEF980F913A49
:1008D00028F40E94200B0E94810B089590E2980F4B
:1008E000983050F4877091E001C0990F8A95EAF72B
:1008F000892F0E94490BEFCF9BE5980F933028F486
:1009000090E080E00E9487280895885A873120F47B
:1009100090E080E00E949D2808951F93CF93DF937D
:10092000182FEB010E941F04209739F4812F0E9499
:100930006304DF91CF911F9108958FE99FE00197A4
:10094000F1F700C000002197EFCF70E060E089333D
:1009500011F460E570E00E948D040895882321F071
:100960000E94430B0E94810B0895882321F00E946E
:10097000490B0E94810B0895B0E0A0E0E2ECF4E0A6
:100980000C94FD316C01D62FC72FFC011281F5802C
:10099000F2949FE0F9220E94390BE82E8823B9F0E7
:1009A000E12E1123A1F08C2F807F803421F080E292
:1009B0008D0F8830D0F08091230382FF16C082E033
:1009C0000E94E40B0E94390B91E0E82EE926BC2E30
:1009D000B2948FE0B822FBE0FB1508F468C0EB2D61
:1009E000F0E0ED5EFC4C0C94E731E12CF0CF0C2FE5
:1009F0000F70C07F11F00295007F112399F0002342
:100A000059F080E28D0F883010F0D11107C0802F8F
:100A10000E94430B0E94810B8D2F41C0802F0E94AA
:100A2000530BF8CF8D2F0E946304002309F43FC0BD
:100A300080E28D0F883010F0D11104C0802F0E9409
:100A4000490B03C0802F0E94590B0E94810B2FC0BD
:100A50000C2F0F70C07FC03211F00295007FDD2394
:100A600081F0D13009F463C0112309F46DC0FF2077
:100A700009F463C0F601858180FFCECF8F70858336
:100A80005CC08091230382FD33C0112359F0002301
:100A900029F0802F0E94430B0E94810B80E00E946E
:100AA0001F0405C080E00E9463040111C7CFEB2D35
:100AB000E850FF0B349720F40E946F280E94B9037E
:100AC000EE2089F00E94350B80FD0DC0F6011282E8
:100AD0000E942F0B0E947207C6010E94B7060E9457
:100AE0002F0B0E947E07CDB7DEB7E9E00C941932D8
:100AF000112389F0F11006C00E94630B802B0E9425
:100B0000AE04D5CF21E0F212F7CF0E94630B802B09
:100B10000E946A0BCCCFF11006C00E94770B802F89
:100B20000E94B504C4CF31E0F31609F2F6CF1123C9
:100B300031F082E08F1508F4BACF802FE0CF91E03A
:100B40009F1508F4B4CFEBCFFF2049F3D93349F414
:100B5000FFEF27EE33E0F15020403040E1F700C0D6
:100B600000008D2F0E946304A2CF8C2F869586955E
:100B7000837069F0813009F09ACF8D2F9C2F93708C
:100B8000111102C090E080E00E949D2890CF8D2F2F
:100B90009C2F9370111102C090E080E00E94872882
:100BA00086CF8C2F837079F5111181CF4D2F42950F
:100BB00046954770440F440F8D2F8F70042E01C04F
:100BC000880F0A94EAF72D2F2071D4FF07C02FE079
:100BD00030E001C0220F4A95EAF72095C695C695E8
:100BE000C370822BC23049F058F4C13019F00E9412
:100BF0004F075DCF0E9449075ACF0E94550757CF34
:100C00000E94460754CF8695112311F08C2F8170D6
:100C1000882309F44CCF4D2F429546954770440FD9
:100C2000440F8D2F8F70042E01C0880F0A94EAF7AD
:100C30002D2F2071D4FF07C02FE030E001C0220F1C
:100C40004A95EAF72095C695C695C370822BC230A7
:100C500049F058F4C13019F00E949D0728CF0E9436
:100C6000970725CF0E94A30722CF0E945E071FCFC0
:100C7000CF70112329F08C2F0E9472078D2F3FCF48
:100C80008D2F0E94B5048C2F0E947E0710CFD23F7B
:100C900051F160F4D03FB9F0D13F81F0112309F454
:100CA00049C0F110B9CE8C2F8F7121C0D33F11F103
:100CB000D43FA1F78091230382FD26C08C2F8F7132
:100CC000112311F314C0112349F081E08F1508F4AA
:100CD000EECE8C2F8F710E948B07E9CE92E09F158C
:100CE00008F4E5CEF6CF8C2F8F711111CDCF0E9475
:100CF0007207DDCE112329F08C2F8F710E946907B6
:100D0000D6CE0E946507D3CE112349F0CF718C2F28
:100D10000E94720763E08C2F0E94C60BC8CE81E050
:100D20000E94E40BE1E0EF1508F0C1CE82E00E94E2
:100D3000E40BBDCEF1100ACF8C2F8F71A5CF0F938E
:100D40001F93CF93DF93EC01688179818A810E94A0
:100D50005A088C010E94A9070E944507B801CE01DC
:100D60000E94BC04DF91CF911F910F910895CF9302
:100D7000DF93EC018B819C81892B29F088819981FB
:100D800089238F3F51F4DF91CF910895CE010E94C6
:100D90009F06CE010E94DE02F6CFCE010E942F03F5
:100DA0008111F4CF0E94390B882369F38A8188234B
:100DB00051F38091230382FFE6CF82E00E94E40B8F
:100DC000E2CF90E080E00E94872890E080E00E94DF
:100DD0009D280E94600B0E94810B08950E94280BA1
:100DE0000E94E10608950E94500B0E94EE060895AD
:100DF00092959F70963091F058F4925F9F70923068
:100E000058F4803F19F030F4883E30F481E00895C2
:100E10009A5FF4CF843FD1F380E00895883EB0F329
:100E2000813FD1F7F3CFFC0183819481892B29F095
:100E30008081918189238F3F11F480E00895808122
:100E400091810E944F080E94F8060895A5E0B0E045
:100E5000ECE2F7E00C9404322596E2E00C942032A8
:100E6000A6E0B0E0E6E3F7E00C9404322696E2E078
:100E70000C94203208950E943A0708950E943B077F
:100E8000809312020E94E106089508950E943E0791
:100E9000089590911202892B0E943E070895909127
:100EA000120289230E943E07089590911202892719
:100EB0000E943E0708950E943A0708950E94170273
:100EC000809311020E94E106089580E00E945E076F
:100ED000089591E001C0990F8A95EAF7892F0E9441
:100EE0005E07089521E030E001C0220F8A95EAF7FD
:100EF00080911102822B0E945E07089521E030E06C
:100F000001C0220F8A95EAF7209580911102822371
:100F10000E945E07089521E030E001C0220F8A950B
:100F2000EAF78091110282270E945E07089590914E
:100F30001102892B0E945E07089590911102892366
:100F40000E945E0708959091110289270E945E0712
:100F500008950895262F277091E001C0990F2A95D2
:100F6000EAF723E0769567952A95E1F7FB01EE0F06
:100F7000FF1FE60FF71FE40FF51F50E040E0682F5A
:100F800070E08191DF0111979B01042E02C036951C
:100F900027950A94E2F721702195282729232827ED
:100FA0002C934F5F5F4F4330510559F70895A82F99
:100FB000A77023E0969587952A95E1F7FC01EE0F3F
:100FC000FF1FE80FF91FE60FF71F50E040E080E039
:100FD000219130E00A2E02C0369527950A94E2F757
:100FE00021703327042E01C0220F0A94EAF7822BC6
:100FF0004F5F5F4F4330510559F70895262F9430C6
:1010000070F4853060F4682F70E085E0989F600D83
:10101000711D112448E052E0822F0E94AA07089512
:10102000292F943068F4853058F490E068E072E03D
:1010300035E0239F800D911D11240E94D70708954C
:1010400080E00895CF92DF92FF920F931F93CF938A
:10105000DF936C010091110280911202082BC7E00E
:10106000D0E010E0FC2EC8010C2E02C095958795AB
:101070000A94E2F780FD0CC02197A0F7F12C8F2D88
:10108000DF91CF911F910F91FF90DF90CF90089546
:10109000B6018C2F0E94A50E019771F3F0CFCF936C
:1010A000DF93EC010E942208BE010E94A50EDF9191
:1010B000CF9108951F93CF93DF93EB019091070297
:1010C000992339F0CB010E944F08DF91CF911F91F6
:1010D0000895882369F0CB010E942208182F682FF9
:1010E000CE010E94FE07BE01812F0E94A50EEDCF0A
:1010F000CB010E941008182FF6CF1F93CF93DF93D8
:10110000C091130216E0809114028C1304C0DF9189
:10111000CF911F910895D0E01C9FF0011D9FF00D0D
:101120001124EB5EFD4F4081518162817381848186
:1011300095810E9430072196C770E5CF4091450206
:101140005091460260914702709148028091490295
:1011500090914A020E94300708951F93CF93DF9326
:1011600080914A02807F09F049C08091470288231C
:1011700009F444C080911302C091140260914502A9
:1011800070914602A0914802B0914902D62FD72310
:1011900016E0C81799F190E0109711F0DF3F19F4AD
:1011A00001968770F6CF189F9001199F300D11247A
:1011B000F901EB5EFD4F41814713F2CF40814613A9
:1011C000EFCF42814111ECCF438154814A1B5B0B2D
:1011D000483C510528F780914A028F7080618093C6
:1011E0004A02F901E65EFD4F80818F708061808345
:1011F00085E492E00E94B7060E947D08DF91CF91BE
:101200001F910895A1E1B0E0E8E0F9E00C94FC3111
:101210008C0185E0F801DE011D9601900D928A9502
:10122000E1F7F801E28085E4C82E82E0D82E6091D3
:101230004802709149026115710509F44EC19091FF
:10124000450220914602892F82238F3F09F445C130
:1012500040815181A380B480F0904702F501E61BE4
:10126000F70BFF2009F4EAC080914A02382F307F43
:10127000E83CF10508F0A3C031116DC0FE2C251328
:1012800016C0941314C0E11012C08F708061809357
:101290004A020E949E08C6010E94B70680914A0237
:1012A000F80185838F2D6196EAE00C941832A11421
:1012B000B10429F0842F85238F3F09F027C180E0F6
:1012C000F82FF170DF2E80FF3CC080911302209137
:1012D000140236E0821315C04D875E878D859E858A
:1012E0000E944F08292F22952F702230F0F02430D1
:1012F00018F59F70F1F0F8019581907FD1F4D12C11
:101300001EC090E0389FF001399FF00D1124EB5E74
:10131000FD4F6181651306C06081641303C0628163
:10132000E6120FC001968770D5CF9F7011F0882309
:1013300031F3805E883018F3C8010E94B706FD2C97
:10134000B1CFEE2009F4AECF80914A028160809344
:101350004A02F12CA7CF251306C0941304C0F8014C
:10136000EE2009F487C0C8010E941307882319F1F1
:10137000EE2009F180914A02803270F020914502FE
:101380003091460238872F831986BB86AA868C87C0
:10139000CE0107960E94B70686E0F801A5E4B2E008
:1013A00001900D928A95E1F70E94AD080E949E0877
:1013B000FF24F39477CFC8010E94B706F9CF31110B
:1013C00013C07A2DB98AA88A6E2D89890E942607B2
:1013D00085E492E00E94B70686E0F60111928A95B4
:1013E000E9F70E949E08B5CF25130FC094130DC0D6
:1013F000E1100BC0F8018583C8010E94B70686E0A2
:10140000F60111928A95E9F74DCFC8010E941307A2
:10141000882389F2EE2079F280914A02803208F422
:10142000BBCF20914502309146023A8329831B822B
:10143000BD82AC828E83CE010196ACCFE83CF10533
:1014400008F03EC0FE2CEE2009F4B5CF25132AC0CB
:10145000941328C080914A0280FD1BC0982F907F72
:10146000C1F0F8018583903F31F0982F907F905F15
:101470008F70892B8583C8010E94B70686E0F8012A
:10148000A5E4B2E001900D928A95E1F70E949E08D2
:1014900009CF86E0F801A5E4B2E001900D928A95AB
:1014A000E1F700CFC8010E941307811175CF809129
:1014B0004A02816080934A02C8010E94B706F2CEB8
:1014C0007A2DB98AA88A6E2D89890E94260786E01E
:1014D000F60111928A95E9F7D9CFEE2009F46BCF86
:1014E000C8010E941307F82E882309F464CF86E010
:1014F000F801A5E4B2E001900D928A95E1F785E448
:1015000092E00E9419040E94AD08C0CF81E08E25B0
:10151000D7CEACE0B0E0EFE8FAE00C9403324F83B2
:10152000588769877A878B879C87CE0107960E94A8
:101530000209882369F08A859B85892B39F04F81C0
:101540005885842F85238F3F09F06BC016E05FC05C
:1015500086E0FE013796DE01119601900D928A9584
:10156000E1F78A859B85892B89F38F81988589236B
:101570008F3F61F32091140230E0C901019687701A
:101580009927409113024817190671F40E94F30637
:10159000109214021092130286E0E5E4F2E0DF01FB
:1015A0001D928A95E9F7D2CF96E0929FD001939F42
:1015B000B00D1124AB5EBD4FFE01319601900D922E
:1015C0009A95E1F7809314020E947D08BFCF819F16
:1015D000C00111248B5E9D4F0E9402098823E9F00F
:1015E000E09113021E9FF0011124EB5EFD4F40813C
:1015F000518162817381848195810E94300780913D
:10160000130290E0019687709927809313028091CE
:101610001302909114028913DACF2C96E3E00C9414
:101620001F3269857A858B859C850E9430078ECF15
:10163000682F80914801909149010E94FB280895EC
:10164000682F80914801909149010E94FE280895D9
:1016500080914801909149010E940129089580914B
:1016600053028595859585950895809153028770DD
:10167000089590915302977081E009F480E00895F5
:1016800080915E02089590915E02892B80935E02A4
:101690000895809590915E02982390935E0208953C
:1016A00010925E02089590915D02892B80935D02F5
:1016B0000895809590915D02982390935D0208951E
:1016C00010925D02089580915402089508950E9439
:1016D000660B08959091230392FF08C090915402E5
:1016E000981721F0809354020E94670B089580910F
:1016F0005402882329F01092540280E00E94670B64
:101700000895CF93DF93E0914801F09149018091D2
:101710005E028083E0914801F091490180819091BF
:101720005D02892B808390915402992381F0E0918E
:101730004801F09149018081892B80838091480183
:10174000909149010E94B32881110E94770BC091AA
:101750004801D091490148E050E06BE472E0CE01CD
:101760000E948732892B59F088E0FE01ABE4B2E099
:1017700001900D928A95E1F7CE010E947C28DF91BD
:10178000CF91089508950E94C20B0895909123036C
:1017900092FF11C098E0899F90011124622B609301
:1017A00053020E9472078091530285958595859515
:1017B0000E94C30B08950E9472070895109253026D
:1017C00080E00E94C30B0895909153028095892375
:1017D00080935302282F277091F4282F082E000C95
:1017E000330B9217130659F09091230392FF07C011
:1017F0008595859585950E947E070E94DE0B08954C
:101800009091230392FB222720F9281769F080FB8F
:1018100092F99093230380912203909123030E94D5
:10182000520C82E00E94E40B08958091230382FB16
:10183000882780F991E089270E94000C089581E0B3
:101840000E94000C089580E00E94000C08956FEF44
:101850007FEF90E080E00E94E932089590E080E020
:101860000E94B532883E9E4F19F40E946D21089562
:1018700080E0089582E090E00E94AD32089583E018
:1018800090E00E94AD320895CF9384E090E00E94F2
:10189000AD32C82F82E290E00E94AD32982F8C2F9B
:1018A000CF910895CF93C92F682F84E090E00E94D4
:1018B000CB326C2F82E290E00E94CB32CF91089520
:1018C000AB01BC018FE090E00E94DD320895AB01D6
:1018D000BC0183E190E00E94DD32089560E070E099
:1018E000CB010E94670C089560E070E0CB010E947C
:1018F000600C0E946E0C089568EE7EEF90E080E030
:101900000E94E93260E082E090E00E94CB3260E029
:1019100083E090E00E94CB321092120260E084E0FB
:1019200090E00E94CB3264E082E290E00E94CB32F1
:1019300060E085E090E00E94CB3260E086E090E0DD
:101940000E94CB326FEF87E090E00E94CB3240E004
:1019500050E0BA0188E090E00E94DD3260E08DE066
:1019600090E00E94CB3240E050E0BA0188E190E084
:101970000E94DD3260E087E190E00E94CB3240E0DF
:1019800050E0BA018CE190E00E94DD3270E060E04E
:1019900080E290E00E94E93240E050E0BA0188E144
:1019A00090E00E94DD3280E00E9486210E94B521F5
:1019B0000E94740C08950E947C0C0895682F8EE09C
:1019C00090E00E94CB3208950E94B92960936D0285
:1019D00070936E0280936F0290937002609369021D
:1019E00070936A0280936B0290936C0208950E9438
:1019F000B92960936D0270936E0280936F02909389
:101A00007002609365027093660280936702909300
:101A1000680208950895089508950E940C0D089590
:101A20008FE89FE00E9465280E940A0D0E940D0227
:101A3000089581E008950E94190D0895089508956C
:101A40000E941E0D0E941F0D08950E94AB0F0E9460
:101A5000B8030E94E51E08950E94A4290E94C52192
:101A60000E946D100E94250D0E947B250E940D0D85
:101A70000895AAE0B0E0EFE3FDE00C94FB310E9492
:101A8000831081E6A82E82E0B82E750110E0F701E0
:101A900001917F01812F0E94CB0F1F5F143009F449
:101AA00045C00817A1F38091710281FD0E94D10FFA
:101AB0000E941B0D982E10E0812F0E94CB0FF82E54
:101AC000F50181915F01F81659F1DF2CD82600E06D
:101AD000EE24E3948D2D8E21E1F0CC24C3948F2D40
:101AE0008E2109F4C12C992079F00E831F83C886BA
:101AF0000E94AD298160782F9A8789874E815F8106
:101B000068858A850E94E4034C2D602F812F0E94F6
:101B1000C81A0F5FEE0C0530E9F6F5013197F08237
:101B20001F5F143049F60E94E40C20C00813BBCF9D
:101B30000E94AD298C0180915F029091600208178C
:101B40001907A1F08FEF89838A831B820E94AD2938
:101B50008160782F9D838C8349815A816B818D812F
:101B60000E94E4031093600200935F020E94201E13
:101B70000E949A2581110E94F70C0E94CB032A969D
:101B8000EBE00C941732CF93DF930E94AA0EEC0186
:101B9000811522E59207E8F5811531E5930708F0F4
:101BA000A3C0883E910510F5803E910570F5883AF6
:101BB000910570F4853A910508F078C0813091055F
:101BC00021F1009711F1049700F5D0E0C0E01DC0AD
:101BD0008F3B9105D0F7C85AD0E0CC0FDD1FCD5612
:101BE000DE4F0990D881C02DD4640FC0811540E527
:101BF000940708F066C0C11580E4D80708F05EC0FD
:101C0000CE019A9581159F4100F7CE01DF91CF91CA
:101C10000895811536E5930718F5811545E5940774
:101C200008F07BC0C11584E5D80708F071C09E019B
:101C3000237033279C2F96959695C115D34508F4AC
:101C400058C0C1E0D0E002C0CC0FDD1F2A95E2F7FA
:101C500030E2939FC0011124C82BD92BDA68D5CF6D
:101C6000C1158AE5D80778F4C11529E5D20708F02F
:101C70005EC0C11538E5D30708F4A7CFDC2FCC2709
:101C8000C06FD06AC2CFCE0190568115904208F045
:101C90009CCF8D2F8F710E944C0F90E0982F88273A
:101CA00088279F719C012C2BE9013FC0C55AD0E0C9
:101CB000CF53DE4FC881D0E0D064A7CFDF70D06AA9
:101CC000A4CF8370992721E030E002C0220F331F98
:101CD0008A95E2F7C695C69580E2C89FE001112477
:101CE000C22BD32BDD6891CFD82FCC27C16FD06A00
:101CF0008CCFC1E0D0E002C0CC0FDD1F2A95E2F707
:101D000020E2929FC0011124C82BD92BDC687DCF23
:101D1000DC2FCC27C46FD06A78CF0E944C0FC82F1D
:101D2000D0E0DC2FCC27CC27DF71D0626ECF8C2F98
:101D30008F700E944C0F34E0D695C7953A95E1F725
:101D4000CF709C2FEC01D06960CF0E94CD260E94FD
:101D5000C30D089582389105B9F1B0F4813391052E
:101D600009F47DC048F48932910509F46DC08A32C6
:101D7000910509F47BC008958533910509F45FC08E
:101D80008933910509F10895833E9105D9F138F41D
:101D9000803E910529F1823E910579F10895863EB4
:101DA0009105D9F1873E910509F43EC0843E910525
:101DB00041F52091230321FF24C08091220384FD5B
:101DC00019C087EE90E0089520912203237009F056
:101DD0005AC02091230323FF14C089E290E00895A4
:101DE0002091220320FD38C03091230330FF09C029
:101DF00024FF43C090E080E008952091220322FD5B
:101E0000F7CF08952091220322FD3AC03091230399
:101E100030FD39C024FFF5CFEDCF2091220323FF01
:101E2000F0CF24FDE7CFCDCF2091220323FD2EC09C
:101E30003091230331FFEECF84EE90E0089520919E
:101E4000220325FFDECFC9CF2091220325FD21C02B
:101E50002091230323FFD5CF89E390E0D2CF2091B7
:101E6000220326FFCECF8AE290E00895209122033C
:101E700026FFC7CF81E390E0089583EE90E00895B8
:101E800082EE90E0089580EE90E0089586EE90E076
:101E9000089585E390E008959091220392FF06C093
:101EA000282F28712830F9F4877F846093FF06C0BB
:101EB000282F28712831F1F4877E84612091230333
:101EC00020FF06C0382F38713830D9F4877F816001
:101ED00021FF06C0282F28712831D1F4877E816127
:101EE00094FD877E0895282F24712430F9F68B7F86
:101EF0008860DCCF282F2471243101F78B7E886124
:101F0000DDCF382F3171313019F78E7F8860E0CF07
:101F1000282F2171213121F78E7E8861E1CF80E069
:101F200008950E94270C08950E9483108FE39CE976
:101F30000197F1F700C000000E94831083E00E9427
:101F4000CB0F80FF04C00E94910F0E94142A0895B5
:101F50000E94940F08950E942E0C811102C00E94CD
:101F6000DB0C0E943A0C809371020E94440C909307
:101F70002303809322030E94A80F0E943F0C0E941B
:101F80004607809111020E9417020895089508954E
:101F90000E94C70F0895E82FF0E0E85DFC4F8081B4
:101FA0000895089580EA8A95F1F7089500C008958C
:101FB0000E94D20F0895F894E82FE295EF70F0E0B8
:101FC00031A1282F2F7081E090E001C0880F2A9561
:101FD000EAF7982F9095932391A392A1892B82A33E
:101FE00078940895CF93DF9384EF0E94DB0F85EF01
:101FF0000E94DB0F86EF0E94DB0F87EF0E94DB0F52
:10200000C4ECD1E089918F3F11F00E94DB0F81E099
:10201000C93CD807B9F7DF91CF910895B0E0A0E0AF
:10202000E4E1F0E10C94FE31EC01D62E062F10E035
:10203000C80187539E4F7C01FC0180818F3F09F4CA
:1020400045C0F894E82FE295EF70F0E091A18F7011
:1020500021E030E001C0220F8A95EAF7892F822B18
:1020600081A382A12095282322A378940E94D60FD1
:10207000E4ECF1E049EC51E031E0C12C21912F3F3B
:1020800051F1A22FA295AF70B0E090968C9190E0A4
:102090002F7002C0959587952A95E2F780FD1BC0A9
:1020A000832FC82A330F4E175F0741F7F70180814E
:1020B0008F3F11F00E94DB0F61E0C11001C060E0B2
:1020C0008D2D0E94D80FC00FD11FC882CDB7DEB7AB
:1020D000E8E00C941A3280E0E4CF0E94F20F84E032
:1020E000E8E2F3E0DF01982F1D929A95E9F7E4E228
:1020F000F3E0DF011D928A95E9F784E00E94C010A9
:102100000E9411030895A4E0B0E0E9E8F0E10C9426
:10211000033219821A821B821C8210E0612FCE01C9
:1021200001960E940E101F5F1430C1F744E050E08A
:10213000BE016F5F7F4F84E293E00E94873221E00F
:10214000009709F420E0892B61F089819A81AB81A5
:10215000BC818093240390932503A0932603B0931E
:10216000270344E068E273E084E293E00E94C11038
:10217000182F0E941403812F2496E3E00C941F3241
:102180000895CF92DF92EF92FF920F931F93CF9318
:102190006C017B01042F222349F081E080937402BB
:1021A0000E94AD299093730280937202C0917402D1
:1021B000C1110AC0C0E08C2FCF911F910F91FF90E9
:1021C000EF90DF90CF90089580917202909173020A
:1021D0000E94C529059770F310E0A801B601C70158
:1021E0000E948732892B41F0A801B601C7010E94E5
:1021F000943210927402DFCFC0E0FBCF0E94DD2B3F
:102200000E942C0D0E94EA2B08950E94EF2B0E9441
:10221000390D0E94092C08950E9446290E94C32B63
:102220000E94100D0E94FE100E9405110E94200DB8
:10223000FBCFEF92FF920F931F93CF93DF93EB01AE
:10224000E82FD1110EC0442321F0F0E0E450FF4FFD
:10225000E4916E2F7E2F8E2FCDB7DEB7E6E00C9483
:102260001C320D2F10E0282F30E0442329F0245099
:102270003F4FF901249130E0F6E0CF9FC0011124D7
:10228000EFEFF0E0BF010E947E31AB018C2F90E0B8
:10229000880F991FA5E5A49FB001A59F700D11247B
:1022A000861B970B982F990F980FBF01601B710B1E
:1022B000629FD001639FB00D729FB00D11248B2FD0
:1022C0009D9FB0011124672F7727EF01C61BD70B05
:1022D000BE01629FE001639FD00D729FD00D11245B
:1022E0007F01E91AF108E09EB001E19E700DF09EB9
:1022F000700D1124672F7727E61BF70BE29F8001F3
:10230000E39F100DF29F100D1124E12F722F423028
:10231000510599F048F44115510569F041305105D6
:1023200081F0EB2F8D2F07C04430510569F080F00C
:1023300046305105B1F76E2F8FCFE22F7B2F812FC3
:10234000FACFE22F7D2FF7CFEB2F822F712FF3CF14
:102350007B2F822FED2FEFCF41E00E9419110895BE
:1023600030E020E0869F212D969F200D311D112405
:10237000C9010895AC018230910508F408959FEFDA
:10238000413E8EE1580740F49A0195E03695279535
:102390009A95E1F798E0920F61E0E62FE90FFF27A9
:1023A000FF1F9F0135952795822F229FF001239FC4
:1023B000F00DF00D11244E175F0738F49FEF920FC8
:1023C000961758F78FEF860F08952F3FE9F361E0D6
:1023D000620FF6CF409150015091510125E038E055
:1023E000429FC001439F900D529F900D1124875E24
:1023F000994C9093510180935001890F0895E82FD3
:1024000086FDE0952E2F2F7086FD2F5FE695E695D1
:10241000E695E670F0E0E353FE4F9181929F902D98
:10242000212D112492959F702295207F922B20813F
:10243000920F87FD919580E8890F0895E42FF0E0D1
:10244000EE0FFF1FE85EFE4F408134EE439F412DAB
:102450001124E72FF0E050E0445E5F4FDA01A21B49
:10246000B1099D01B7FF03C031952195310993E072
:10247000220F331F9A95E1F7AF01421B530B9A01CC
:1024800057FD20E0279F212D1124722F0895E42F5E
:10249000F0E0EE0FFF1FE85EFE4F408134EE439FF9
:1024A000412D1124E82FF0E050E0445E5F4FDA0147
:1024B000A21BB1099D01B7FF03C0319521953109D8
:1024C00093E0220F331F9A95E1F7AF01421B530BA4
:1024D0009A0157FD20E0582F259F212D1124822F8E
:1024E0000895E42FF0E0EE0FFF1FE85EFE4F6081DD
:1024F000621B08952091300330E1230F08F42FEF81
:1025000060E1822F90E00E94B011BC0188EB9BE05B
:102510000E947E3190E080E008954095282F429FF0
:10252000412D1124842F089522E8241B08F420E073
:10253000620F0895EF92FF920F93970195E0099F24
:10254000200D311D11242F3F310519F010F02FEF10
:1025500030E02095382F320F08F43FEF832F0F9192
:10256000FF90EF900895EF92FF920F931F930E0D3F
:102570001F2D111DF90137FF03C0F195E195F109F8
:1025800024E0EE0FFF1F2A95E1F7EF3FF10519F068
:1025900014F0EFEFF0E09A0157FF03C03195219559
:1025A000310994E0220F331F9A95E1F72E173F0768
:1025B0000CF4F901E00FF11FEF3FF10519F010F0F5
:1025C000EFEFF0E0E095282F3E2F230F08F42FEFD8
:1025D000822F1F910F91FF90EF900895EF92FF923D
:1025E0000F93972F093438F4B701601B71096F3FBF
:1025F000710519F010F06FEF70E0485F5F4F4131E7
:10260000510540F0A901485F5F4F4131510510F07D
:102610006FEF70E06095482F460F08F44FEF842F5E
:1026200037FF02C02D5F3F4F35952795359527958C
:1026300060912D03620F792F0F91FF90EF90089515
:10264000EF92FF920F939701201B31092F3F310525
:1026500019F010F02FEF30E0322F3095482F430F54
:1026600008F44FEF842F620F0F91FF90EF900895C1
:10267000EF92FF920F939701201B31092F3F3105F5
:1026800019F010F02FEF30E02095382F320F08F4BA
:102690003FEF832F0F91FF90EF9008959091BB0231
:1026A000892B8093BB020895FC019B01AC0197FF2D
:1026B00004C044275527481B590BBA01620F731FEA
:1026C00037FD0FC0241B350BC901A5E0880F991FEA
:1026D000AA95E1F70E94923180E2861BF7FD819571
:1026E0000895CB0165E0880F991F6A95E1F7BA015B
:1026F000621B730B0E94923180E6EFCFEF920F9333
:102700001F93CF93DF93D62FC72F182FC9010E1910
:10271000010F009729F480E857FD05C080E003C051
:10272000BA010E945413081B202F219F212D112430
:10273000822F6D2F7C2FDF91CF911F910F91EF9002
:10274000089546E050E06CE170E08CE293E00E9476
:10275000BB321092BB0208950F93CF93DF93D72F14
:10276000C82FC901009729F480E857FD05C080E013
:1027700003C0BA010E945413602F680F7D2F8C2F65
:10278000DF91CF910F9108950E94AC110895B0E0B0
:10279000A0E0EDECF3E10C94F731782E662E862F55
:1027A00090E025E0729E80011124F801EC5FFE4F5D
:1027B000E80FF91FC081CF3FA9F1B12CA12C812CCA
:1027C000D0E09E01220F331FA901485E5E4F6A01CF
:1027D000E901C75EDE4F02511D4F080F191F750139
:1027E000912C88E2582EF701EC5FFE4F80818F3FDD
:1027F00059F078101CC069101AC0F801208130E22D
:10280000230F08F42FEF208393944FEFE41AF40A78
:1028100055E09512E8CF839485E0A80EB11CE4E062
:102820008E12DDCFCDB7DEB7EFE00C94133290E01F
:10283000F6012081FC01EE0FFF1FE85EFE4F3081A4
:10284000231B330B4881880F991FFC01EC5FFE4F5F
:102850008589481B550B229FB001239F700D700D79
:102860001124449FC001459F900D900D1124860FA7
:10287000971F0E94BA11893238F6252D382F231B55
:1028800008F420E0F701E251FD4F213108F020E18A
:102890003081320F08F43FEF3083B6CF0E94A1138E
:1028A0000895ECE2F3E081E2808380915F019091F2
:1028B0006001A091610181839283A3838FE7848368
:1028C0008FEF85830E94A113089580E008950F93F0
:1028D0001F93CF93DF93C82FD62F8A010E946514D0
:1028E00095E0C99FB00111246C5F7E4F6D0F711D83
:1028F000FB0190819F3F29F0F801E80FF11D9083C3
:102900008F5FDF91CF911F910F910895E091DB01CF
:10291000F091DC0109950895E091D701F091D8017B
:1029200009950895B0E0A0E0E8E9F4E10C94F531F0
:102930003C012B01FC01C081CC0FCC0F14E01C0F1B
:10294000F12E113110F030E1F32E609130036695D5
:1029500080913203909133030E94B011382ED0E061
:10296000CE01880F991F9C012C5F3E4F6901CF1546
:1029700048F081E0103108F080E0CDB7DEB7E1E14A
:102980000C941132FE01EC5FFE4F84A9F30191819A
:10299000892379F1F6018489282F2057330B5901B7
:1029A0008589E82FE052FF0B4F01AA9C9001AB9C58
:1029B000300D300D1124EE9FC001EF9F900D900D52
:1029C0001124820F931F0E94BA11082F60912D03CA
:1029D00070912E0380912F03E32C9401A501F20145
:1029E00009950E94C413462F282F672FCE010E94FD
:1029F0008C14F2E0CF0ED11C2196B9CF6EE773E1B3
:102A00000E9492140895B0E0A0E0E9E0F5E10C9492
:102A1000FA315C016B01FC01C081CC0FCC0F14E0DA
:102A20001C0F912E113110F030E1932E6091300384
:102A3000669580913203909133030E94B011882EE5
:102A4000D0E0CE01880F991F9C012C5F3E4F790189
:102A5000C91548F081E0103108F080E0CDB7DEB74D
:102A6000ECE00C941632FE01EC5FFE4F84A9F501F8
:102A700091818923C1F0F70125892052330B4489C4
:102A80004057550B60912D0370912E0380912F03B9
:102A9000082DF60109950E94C413462F282F672F91
:102AA000CE010E948C14F2E0EF0EF11C2196D0CFE3
:102AB0006CEA73E10E9403150895B0E0A0E0E3E63C
:102AC000F5E10C94FD317C018B01FC01C081CC0F40
:102AD000CC0F94E0D92EDC0ECD2CF0E1FD1510F4D6
:102AE00080E1C82E609130036695669521E0620F03
:102AF00008F46FEF80913203909133030E94B0117C
:102B0000B82ED0E0CC1550F081E09FE09D1508F480
:102B100080E0CDB7DEB7E9E00C941932FE01EC5F3E
:102B2000FE4F84A9F7019181892391F060912D03D3
:102B300070912E0380912F032B2D4C2FF8010995B6
:102B40000E94C413462F282F672FCE010E948C1499
:102B50002196D8CF6EE172E10E945D15089567E479
:102B600072E10E945D15089561E772E10E945D15B2
:102B70000895B0E0A0E0EFEBF5E10C94FC318C019E
:102B80007B01FC01C081CC0FCC0F24E0B22EBC0E27
:102B9000AB2CF0E1FB1510F490E1A92E209130034D
:102BA00031E0230F08F42FEF30E050E040E06FEF0A
:102BB0007FEF80E090E00E94C8316901D0E02C2FC7
:102BC000CA1550F081E0FFE0FB1508F480E0CDB7B6
:102BD000DEB7EAE00C941832FE01EC5FFE4F84A9E8
:102BE000F8019181892311F1409136034150042E5F
:102BF000000C550B47FF1CC0C6016091300321E05B
:102C0000620F08F46FEF0E94B011AC0160912D03C8
:102C100070912E0380912F03F70109950E94C41330
:102C2000462F282F672FCE010E948C142196C7CFE4
:102C3000FA01EA5CFC4F818982130AC0FA01EE0FA7
:102C4000FF1FEA5CFC4F818D928D8C159D05A8F2CB
:102C500041505109CFCF6DE872E10E94B915089536
:102C600064E972E10E94B9150895ABE0B0E0EBE3CE
:102C7000F6E10C94F4318C832B015F834E83FB01CE
:102C8000F081FF0FFF0FF983FC5FFA83FB83F131C3
:102C900010F020E12B83309136033D839981892FF9
:102CA00090E09B878A87880F991FFC01EC5FFE4F9D
:102CB0006F01FC818F2F90E09C012F5F3F4F398780
:102CC0002887EB81FA85FE1748F081E02A812031C0
:102CD00008F080E02B96E2E10C941032EA85FB8547
:102CE000EC5FFE4F84A9F2019181892301F12090CC
:102CF0002D0330902E03288539852A5C3C4F3901FD
:102D00003C81398310E029813D812317C8F020914F
:102D10002F03129F112D1124B101812F0E94C41382
:102D2000462F282F672F8A859B850E948C148A85C1
:102D30009B8501969B878A8792E0C90ED11CC1CFE3
:102D4000F30181913F01F601A488A81ABB08858888
:102D5000F3018781881A9908AA9C9001AB9C300DD9
:102D6000300D1124889CC001899C900D900D112478
:102D7000820F931F0E94BA11082F6091300321E047
:102D8000620F08F46FEFF301EE0FFF1FE653F340FD
:102D9000858996890E94B0117C019401A501B10139
:102DA000812FEE81FF8109951B01F981FF5FF98376
:102DB000182FA9CF2091360331E0231B08F420E01F
:102DC0004AE952E1BC01822F0E94351608954AE972
:102DD00052E1BC0180E00E9435160895209136032F
:102DE00031E0231B08F420E043EB52E1BC01822FC9
:102DF0000E943516089543EB52E1BC0180E00E9429
:102E0000351608952091360331E0231B08F420E0A5
:102E10004EEE52E1BC01822F0E94351608954EEE0F
:102E200052E1BC0180E00E943516089520913603DE
:102E300031E0231B08F420E040E253E1BC01822F83
:102E40000E943516089540E253E1BC0180E00E94E3
:102E5000351608952091360331E0231B08F420E055
:102E600048E353E1BC01822F0E943516089548E3E0
:102E700053E1BC0180E00E9435160895B0E0A0E067
:102E8000E4E4F7E10C94FD317C01FC01C081CC0F3E
:102E9000CC0F14E01C0F012F113108F000E16091FC
:102EA0002D0370912E0380912F030E94C413D62E00
:102EB000C72EB82ED0E0C01748F081E0103108F0DE
:102EC00080E0CDB7DEB7E9E00C941932FE01EC5F8B
:102ED000FE4F84A9F7019181892331F02B2D4D2DCF
:102EE0006C2DCE010E948C142196E5CFB0E0A0E0BD
:102EF000ECE7F7E10C94FA317C01FC01C081CC0FC6
:102F0000CC0F14E01C0F012F113108F000E1C0902C
:102F10002E03D0902F03D0912D036D2F7C2D8D2D5E
:102F20000E94C413B62EA72E982E609130036D0F09
:102F30007C2D8D2D0E94C413D62EC72E882ED0E056
:102F4000C01748F081E0103108F080E0CDB7DEB75F
:102F5000ECE00C941632FE01EC5FFE4F94A9F701F1
:102F60008181892359F0282D4D2D6C2D90FD03C0B2
:102F7000292D4B2D6A2DCE010E948C142196E0CF75
:102F8000B0E0A0E0E6ECF7E10C94FD317C01FC013F
:102F9000C081CC0FCC0F14E01C0FD12E113110F0DA
:102FA00090E1D92EC0902E03B0902F0320913003D2
:102FB00000E4029F012D1124D0E0CD1548F081E0FE
:102FC000103108F080E0CDB7DEB7E9E00C9419329B
:102FD000FE01EC5FFE4F84A9F70191818923B9F0CE
:102FE000FE01EE0FFF1FEC5FFE4F858982958F700B
:102FF00060912D03809F600D11247C2D8B2D0E94EC
:10300000C413462F282F672FCE010E948C142196BF
:10301000D4CFB0E0A0E0EFE0F8E10C94FD318C01FA
:10302000FC01C081CC0FCC0F94E0F92EFC0EEF2CEC
:10303000F0E1FF1510F480E1E82ED0902D03D0913F
:103040002E03C0902F0360913003669566956695B8
:1030500080913203909133030E94B0110E94FF11BE
:10306000805887FD8195880F282F3C2D239F212D87
:103070001124822F6D2D7D2F0E94C413D62EC72EB2
:10308000B82ED0E0CE1550F081E02FE02F1508F4D7
:1030900080E0CDB7DEB7E9E00C941932FE01EC5FB9
:1030A000FE4F84A9F8019181892331F02B2D4D2DFC
:1030B0006C2DCE010E948C142196E4CFB0E0A0E0EC
:1030C000E4E6F8E10C94FF318C01FC01EC5FFE4F6B
:1030D00084A9682349F1D0902E03D0912F03C09189
:1030E0002D03EC2EF12C0E94EA11282FC7018C54DD
:1030F0009F4F68E671E00E9492318E199F0997FDFB
:103100000396959587959595879523706C2F289FA5
:10311000600D11247D2D8D2F0E94C413462F282F62
:10312000672FC8010E948C14CDB7DEB7E7E00C947E
:103130001B32B0E0A0E0EFE9F8E10C94FF317C0134
:10314000FC01C081CC0FCC0F84E0D82EDC0E828134
:10315000811124C06091300320E1620F08F46FEF09
:1031600080913203909133030E94B0116AE070E0C5
:103170000E947E31892B41F40E94EA118F70F70181
:10318000618190E00E945E1881E0FFE0FD1508F487
:1031900080E0CDB7DEB7E7E00C941B320D2DF0E1F7
:1031A000FD1508F400E1D0E010E0C017D10764F786
:1031B000F7016181CE010E945E182196F6CF1F9320
:1031C000CF93DF93EC01FC01EC5FFE4F84A96823F1
:1031D000B1F00E947732182F0E9477328F77782FC4
:1031E00020E8720F08F47FEF612F80912F030E9477
:1031F000C413462F282F672FCE010E948C14DF9115
:10320000CF911F910895B0E0A0E0E9E0F9E10C94BE
:10321000FF318C01FC01C281C11122C060913003D9
:1032200020E1620F08F46FEF809132039091330335
:103230000E94B01165E070E00E947E31892B51F44C
:103240000E94773260E170E00E949231F801618162
:103250000E94DF188C2FCDB7DEB7E7E00C941B324D
:10326000C081CC0FCC0F84E0D82EDC0E8D2DF0E188
:10327000FD1508F480E1D0E0E82EF12CCE15DF0535
:1032800034F0C1E0FFE0FD1528F7C0E0E3CFF8011E
:103290006181CE010E94DF182196F0CFE091D90123
:1032A000F091DA0109950895B0E0A0E0EAE5F9E1CE
:1032B0000C94F7316C01DC01FC90FF0CFF0C34E046
:1032C000932E9F0C792CB0E1B91510F420E1722EE9
:1032D000F6018281882361F040E060E080E00E9496
:1032E0004E19EEEEF2E084E1DF011D928A95E9F7D6
:1032F000F6018081811115C0809103039091040330
:103300000E94C52921E08931910508F420E020932D
:103310000203499730F00E94AD29909304038093F3
:103320000303E12C00E0812C85E0582E9AEA692EF7
:1033300005C083E0881508F457C000E0802F90E0B6
:103340005E9CE00111249E012C5F3E4F5901A80EA6
:10335000B91ED501EC91EF1508F43EC0E71508F051
:103360003BC08394F0E0EC5FFE4F24A9F60131816D
:10337000232309F431C0C251DD4FC80FD91F188172
:10338000212F35E5231B08F420E0662D621B709188
:103390002E03262D210F08F42FEF30912F03822FBB
:1033A000880F820F8E5F282F239F212D1124822FBB
:1033B0000E94C413462FD5019C91282F672F892F77
:1033C00090E00E948C1480910203882329F021E070
:1033D000121B08F410E018830F5F053009F0AECF20
:1033E000E39434E0E312A5CF81E09FE0991508F45F
:1033F00080E0CDB7DEB7EFE00C941332A8E0B0E088
:10340000E4E0FAE10C94F731FC0110912F0323E082
:10341000129F70011124F694E794F694E7945E2CC1
:10342000812E912C8FEF90E0B4010E949231762E84
:103430008281882371F040E060E080E00E944E19B4
:10344000EEEEF2E084E1DF011D928A95E9F7109239
:10345000BA028091B9028F5F8093B9028EEEA82ED6
:1034600082E0B82E612C8E189F08650100E08091E3
:10347000BA02802B09F070C00E94773285359540E2
:103480000CF06AC0F5011083AE014F5F5F4F662DEF
:10349000802F0E9467148823C9F0F6012081E981FA
:1034A000F0E0521608F067C030E02E193F092E9D5B
:1034B000C0012F9D900D3E9D900D1124B4010E94DE
:1034C0007E31262F412FCF010E948C140F5FF5E033
:1034D000CF0ED11C043059F663942FEFA21AB20A12
:1034E00085E06812C2CF8091B902871102C01092A4
:1034F000B9028091BA028F5F8D3108F446C01092F4
:10350000BA0228EF32E083E043EF52E09FEF910FE1
:103510007901EEEEF2E0833021F46785161301C0E5
:103520009787D7016D917D01611740F0BD01615012
:103530007109DB019C93D70114961C9331964E17A9
:103540005F0749F78150255031098111E1CF80E0B3
:103550002896EFE00C941332D6018C91882309F45D
:1035600093CF811708F090CF9091B90297118CCF2B
:1035700081508C9389CF129FC0011124B7010E9402
:103580007E31462F20E060E09ECF8093BA02DFCFED
:10359000A8E0B0E0EEECFAE10C94FC31C82EB62EB7
:1035A000A42E0E94190D882309F45FC01092E9022D
:1035B0001092EA021092EB021092EC02D12CAA2097
:1035C00041F0AE014F5F5F4F6B2D8C2D0E94671451
:1035D000D82E0D2D10E08091BC02800F912F911DEF
:1035E00009976CF188E090E07C01E01AF10AB801DB
:1035F00063547D4FA7018DEB92E00E949432B80195
:103600006B537D4FA70185EC92E00E949432A70195
:10361000440F551FB801660F771F6B527D4F85ED24
:1036200092E00E949432B80163537D4FA7018DEC64
:1036300092E00E94943288E08D198093BC02109130
:10364000BC02DE01119640E0842F810FD41211C01C
:103650008093BC02AA2049F080912C038C7F8C338C
:1036600021F46B2D8C2D0E94C7132896EAE00C9450
:1036700018325D91252F30E090E0BC0164547D4FFD
:10368000F901EE0FFF1FE85EFE4F0081FB01018391
:10369000220F331FF901EC5FFE4F2589FB012187C3
:1036A000518B880F991FFC01E454FD4F128E118E2F
:1036B0004F5FCACFB0E0A0E0E0E6FBE10C94FB3145
:1036C000E82E80914E018E1124C090912C039370AE
:1036D00020914F0130E081E09217130609F480E059
:1036E000817080934D018091310390914C01981726
:1036F00039F080934C0140E060E080E00E944E1978
:103700002CE12E1588F0EE2DF0E0E15EFC4C0C94DF
:10371000E73181E0E5CF80914D01882359F040E009
:1037200060E080E00E944E1980E004C08BE491E0EC
:103730000E943E1790914B019F5F90934B01811126
:103740000CC082E080934A0180914D01811105C037
:10375000E11003C083E080934A01CDB7DEB7EBE010
:103760000C9417328BE491E00E947617E3CF8BE440
:1037700091E00E94C017DECF8BE491E00E9409180F
:10378000D9CF8BE491E00E94AA15D4CF8BE491E0CD
:103790000E94AF15CFCF8BE491E00E94FE14CACFF8
:1037A0008BE491E00E94B415C5CF8BE491E00E94B8
:1037B0005815C0CF8BE491E00E949918BBCF8BE4E1
:1037C00091E00E940319B6CF10914B011F5F110FBA
:1037D000110F409132035091330360913403709183
:1037E00035038091B5029091B602A091B702B091D5
:1037F000B80284179507A607B70708F053C00E94C0
:10380000EA11082F0E94EA1190E1891BF0F7890F55
:10381000C82FD0E0FE01EC5FFE4F80914C0194A9CF
:10382000892309F43FC020E040E060E001FD13C0BF
:103830000E94EA11082F0E94EA118695782F2FE73F
:10384000720F08F47FEF602F80912F030E94C41342
:10385000462F282F672FCE010E948C142091300311
:1038600030E1230F08F42FEF60E1822F90E00E94F7
:10387000B011BC0184EF91E00E947E31809132034F
:1038800090913303A0913403B0913503860F971FB5
:10389000A11DB11D8093B5029093B602A093B7020B
:1038A000B093B80281E0103108F444CF3DCF40918D
:1038B000B1025091B2026091B3027091B402809152
:1038C000320390913303A0913403B09135038417F0
:1038D0009507A607B70708F427CF80914D018111FE
:1038E0001EC0C0914B01CC0FCC0F14E01C0F012F58
:1038F000113108F000E1CC2ED12C33E0C39FE00160
:103900001124CF57DD4FC01608F441C0E1E8F2E0C2
:103910008EEA92E0103108F053C081E00BCF40E016
:1039200060E080E00E944E1901E812E0D0E0C0E0C3
:103930003FE7F32E0E94EA1181FF0BC0F8011082CD
:103940001182128221960D5F1F4FC031D10591F770
:10395000C8CF0E94EA11B82E0E94EA118695782FEE
:103960002F2D720F08F47FEFCE01880F991F8C0F57
:103970009D1FFC01EF57FD4F6F016B2D80912F03B1
:103980000E94AC11F601608371838283DBCFF60164
:10399000EC5FFE4F84A990914C01892331F02A817C
:1039A00048816981C6010E948C142396FFEFCF1ACB
:1039B000DF0AA9CF2381348145812193319341933B
:1039C0008E179F07B9F70E94EA1181FF1FC010925E
:1039D000AE021092AF021092B0020E947A120091D1
:1039E0003203109133032091340330913503DC010D
:1039F000CB01800F911FA21FB31F8093B102909340
:103A0000B202A093B302B093B4028ECE0E94EA1128
:103A1000C82F0E94EA118695782F2FE7720F08F4BD
:103A20007FEF6C2F80912F030E94AC116093AE0248
:103A30007093AF028093B002D0CF80914D01882364
:103A400029F040E060E080E00E944E19F0904B01C8
:103A5000F394FF0CFF0C40913203509133036091BB
:103A600034037091350380917D0290917E02A09184
:103A70007F02B091800284179507A607B70708F068
:103A800073C060912D0370912E0380912F030E94CB
:103A9000C413B62EA72E982E05E712E0C4E0D1E09D
:103AA00088E1C82E81E0D82E888190E0F80120813D
:103AB00021110AC020E040E060E00E948C148C815B
:103AC00020E040E060E009C0292D4B2D6A2D0E94C6
:103AD0008C148C81292D4B2D6A2D90E00E948C1422
:103AE000F80121812083898190E021110AC020E022
:103AF00040E060E00E948C148B8120E040E060E0B8
:103B000009C0292D4B2D6A2D0E948C148B81292DE3
:103B10004B2D6A2D90E00E948C140E94EA11837054
:103B200091E009F090E0F80191830E5F1F4F259618
:103B3000CC16DD0609F0B8CF0E947A12009132034C
:103B4000109133032091340330913503DC01CB0114
:103B5000800F911FA21FB31F80937D0290937E025E
:103B6000A0937F02B093800281E0FFE0FF1508F090
:103B7000E1CDDACD8BE491E00E945419DBCD8BE4EA
:103B800091E00E94FE19D6CD8BE491E00E942B16A5
:103B9000D1CD8BE491E00E943016CCCD8BE491E046
:103BA0000E94DA16C7CD8BE491E00E94E716C2CDE1
:103BB0008BE491E00E94EE16BDCD8BE491E00E9473
:103BC000FB16B8CD8BE491E00E940217B3CD8BE4D5
:103BD00091E00E940F17AECD8BE491E00E94161782
:103BE000A9CD8BE491E00E942317A4CD8BE491E052
:103BF0000E942A179FCD8BE491E00E9437179ACD3F
:103C0000089508950E94001E0E94011E08950895BF
:103C10000895CF93DF93FC01C081C15CCC0FCC0F22
:103C2000D4E0DC0FD13108F0D0E16D2F8C2F0E9451
:103C3000071E6D2F8C2F0E94081EDF91CF910895D3
:103C4000A4E0B0E0E6E2FEE10C94F5316091E5021B
:103C50007091E6028091E7029091E8020E94D429D7
:103C60006B017C010E94B9292B013C014092E502C5
:103C70005092E6026092E7027092E8028091E902B7
:103C80009091EA02A091EB02B091EC028C0D9D1D87
:103C9000AE1DBF1D8093E9029093EA02A093EB0250
:103CA000B093EC026091BC02ECEBF2E0762F312C89
:103CB00088248A94982CA12CB12C8C189D08AE08CD
:103CC000BF08631125C07093BC022091ED02211141
:103CD00032C0813E9349A440B10568F580912C0320
:103CE000082F03700983002319F086958695898330
:103CF00080914A018130C1F18823F9F0823009F4C2
:103D000040C0833009F449C02496E1E10C9411329B
:103D1000418D528D8A0130E020E080169106A20686
:103D2000B30620F4715033943296CBCF4C0D5D1D09
:103D3000528F418FF8CF1982DBCF10924B01409206
:103D4000320350923303609234037092350389E258
:103D5000ECEBF2E0A6E3B3E001900D928A95E1F777
:103D600081E080934A01D0CF89810E945A1B09814A
:103D7000002351F20E94021E8BE491E00E94091E72
:103D8000C3CF198110934E0180912C0383708093CF
:103D90004F010E94861483E0E4CF8091BB02811121
:103DA0000E94A11360913203709133038091340318
:103DB000909135030E94D4296031710581059105E8
:103DC00008F4A2CF10924A019FCFE091D501F09163
:103DD000D6010995109236038FEF9FEF9093500311
:103DE00080934F0390935203809351039093540315
:103DF00080935303909356038093550390935803F5
:103E00008093570390935A038093590390935C03D4
:103E100080935B0390935E0380935D031092BC02DA
:103E20009093D6028093D5029093D8028093D702C4
:103E30009093DA028093D9029093DC028093DB02A4
:103E40009093DE028093DD029093E0028093DF0284
:103E50009093E2028093E1029093E4028093E30264
:103E60000E942E0C811104C00E94DB0C0E94511490
:103E700046E050E06CE170E08CE293E00E949D32FD
:103E80001092BB0280912C038C7F11F40E9451147C
:103E90000895CF93C82F882391F08091ED0281116E
:103EA0000EC00E945A1B10924E0180912C03837009
:103EB00080934F010E94861483E080934A01C0934F
:103EC000ED02CF910895ECE2F3E0908121E092279A
:103ED000908310924A010E944E13089581E00E943F
:103EE000631F089580912C03837011F410924A018E
:103EF00080912C038C7F816080932C0308958091A6
:103F00002C03837011F010924A0180912C038C7F56
:103F100080932C03089590912C03937051F081119C
:103F200009C0946090932C0310924A01862F0E943E
:103F30004E1308958D3110F09067F4CF282F220F83
:103F4000220F922BEFCF60E00E948B1F089561E05B
:103F50000E948B1F089580912C0386958695089565
:103F6000682F90912C039695969581E0890F8D315D
:103F700008F081E00E948B1F089581E00E94B01F2D
:103F80000895682F90912C03969596958FEF890F41
:103F900009F48CE10E948B1F089581E00E94C11FEB
:103FA000089590912C03937049F080932D036093B2
:103FB0002E0340932F03822F0E944E13089520E07A
:103FC0000E94D11F089580912D03089580912E03A2
:103FD000089580912F030895ACE2B3E01196EC911F
:103FE0001197F0E0282F13964C91139712966C912D
:103FF000CF0108960E94D11F089581E00E94EC1F16
:104000000895ECE2F3E09181282F43816281E92F4A
:10401000E850FF0BCF010E94D11F089581E00E945C
:1040200001200895ECE2F3E0628120E1620F08F4E0
:104030006FEF9181282F4381892F90E00E94D11F3B
:10404000089581E00E9412200895ECE2F3E062817D
:1040500020E1621B08F460E09181282F4381892FC1
:1040600090E00E94D11F089581E00E9425200895CC
:10407000ECE2F3E0438120E1420F08F44FEF91813D
:10408000282F6281892F90E00E94D11F089581E03E
:104090000E9438200895ECE2F3E0438120E1421BC6
:1040A00008F440E09181282F6281892F90E00E94DE
:1040B000D11F089581E00E944B2008958093300322
:1040C00080E00E944E130895809130030895ECE241
:1040D000F3E0248130E1230F08F42FEF24830E94C2
:1040E0004E13089581E00E9467200895ECE2F3E00A
:1040F000248130E1231B08F420E024830E944E1326
:10410000089581E00E94762008950895FC01EE0F45
:10411000FF1FE80FF91FE15AFC4F618340832283A0
:104120000895EFE5F3E0818360834283339693E063
:10413000EF38F907C1F7089560E170E08FE593E08B
:104140000E9441210895FA01811101C0FB010995E6
:1041500008951F93CF93DF93EC01FB01128111119E
:1041600051C00E94400B8272CA3CFCE5DF0709F493
:1041700073C048F5C53CECE5DE0709F459C068F4A6
:10418000C33C9CE5D90709F449C008F04CC0C23CC7
:10419000DC4509F440C011E035C0C73C9CE5D907B7
:1041A00009F450C008F449C0C83CFCE5DF0709F435
:1041B0004EC04AE550E267E470E2C93CDC4559F77D
:1041C0000E94A3201FC0CF3CECE5DE0709F457C0D6
:1041D00088F4CC3C9CE5D90709F448C008F441C0F8
:1041E000CD3CFCE5DF0709F446C0CE3CDC4599F642
:1041F00084E042C0C63D9CE5D90748F489E0C13D52
:10420000DC45D0F1812FDF91CF911F910895CD35FD
:10421000DD45C1F3C0CF0E946E1FF4CF4DEC5FE1CE
:104220006DEB7FE1CDCF4DEB5FE16DEC7FE1C8CF72
:104230004EE050E26DEF7FE1C3CF4DEF5FE16EE006
:1042400070E2BECF44E350E261E270E2B9CF41E2F6
:1042500050E264E370E2B4CF47E450E26AE570E212
:10426000AFCF41E850E262E770E2AACF42E750E206
:1042700061E870E2A5CF81E00E94A71FC3CF88E06C
:10428000FBCF519A4BB14D7F5BB15260EFB7F894C1
:104290009B01220F331F260F371F280F391F2817A6
:1042A000390741F4EFBF8FE594E00197F1F700C0C3
:1042B00000000895DC016D91CD0178E05BB900004C
:1042C00000C067FF4BB9660F000000C000C000C00F
:1042D0004BB900C07A9591F7E2CF83E290E00E945B
:1042E000AD32823289F484E290E00E94AD328031B6
:1042F00059F485E290E00E94AD3291E0813109F0FD
:1043000090E0892F8170089580E0FCCFCF93C82F73
:104310006FEF811162E283E290E00E94CB326FEF97
:10432000C11160E184E290E00E94CB326FEFC111D5
:1043300061E185E290E00E94CB32CF91089508952B
:1043400086E290E00E94AD32682F70E090E080E05D
:1043500008950895CF93C62F0E94A9216C2F86E25D
:1043600090E00E94CB32CF91089580E00E94862198
:1043700060E070E0CB010E94AA210E9449260E94C1
:104380002A2781E00E94862108950E949F210E9491
:10439000A0210E94A9210E946D21811102C00E94CA
:1043A000B5210895CF93FB01C281CC2309F19C0173
:1043B00022513F452031310520F582510E943A2794
:1043C000C0E08C2FCF91089581E00E94720743E0F6
:1043D00062E081E00E940703F3CF81E00E947E0744
:1043E00043E062E081E00E940703EBCF82E0F6CF7A
:1043F0008031FFE59F0789F381319F45B9F3C1E023
:10440000E0CF8031EFE59E07F9F281319F45C9F693
:1044100082E0DBCF2FEFFC0120830895CF93DF9361
:10442000EC0188818138E9F028F4803871F0DF915F
:10443000CF9108958238C9F08338C9F70E94E31FED
:1044400089830E94E61F8A83F2CF0E94E91F2FEF23
:10445000829FC00111246FEF70E00E947E3169835A
:10446000E6CF0E94AB1F8983E2CF0E94642087328F
:1044700030F08F3530F08E3930F083E0F4CF80E0CB
:10448000F2CF81E0F0CF82E0EECF1F93CF93DF93A6
:10449000EC018881813811F130F4803879F0DF91B6
:1044A000CF911F910895823829F18338C1F70E9476
:1044B000E91F9981482F6A81892F0CC019812FEF3C
:1044C000129F112D11240E94E61FC82F0E94E31F86
:1044D000412F6C2F90E00E94DF1FE1CF89810E9465
:1044E000A31F8981811103C00E947F1FD8CF0E9422
:1044F000721FD5CFE9818FE7E43020F4F0E0E3527A
:10450000FE4F80810E945E20CACFEF92FF920F93F0
:104510001F93CF93DF93EC01062FDC01ED91CD01CA
:10452000E150E33108F0ACC0F0E0E45CFC4C0C94EA
:10453000E73119828AE08A83602FCE010E94962A91
:10454000CDB7DEB7E6E00C941C328981823069F089
:10455000833071F08130D9F40E94B9290E94ED3185
:104560006A837B838C839D83E7CF0E94A021F6CF53
:104570007E01B2E0EB0EF11C10E0812F0E94CB0F08
:10458000F70181937F011F5F1430B9F7D5CF602FFA
:10459000CE010E940A22D0CF89818230C1F76A8180
:1045A0007B818C819D810E94ED310E94AA21C4CF24
:1045B0004B816A8189810E940B2698278927982739
:1045C0009D838C83B9CF2C813D81322723273227CD
:1045D0004B816A8189810E942D26AECF0E94492697
:1045E000ABCF0E944522A8CF0E940E22A5CF0E94E9
:1045F0004E14A2CF0E94DB2689839ECF0E94DD2627
:104600009827892798279A83898396CF6B8170E0B2
:1046100089819A81AE014C5F5F4F9827892798273F
:104620000E94E02689CF6B8170E089819A81AE017A
:104630004C5F5F4F9827892798270E9405277CCFDA
:104640000E942A2779CF0E94F925D6CF6B8170E08E
:1046500089819A81AE014C5F5F4F982789279827FF
:104660000E94872669CF6B8170E089819A81AE01B3
:104670004C5F5F4F9827892798270E94AA265CCF16
:104680008FEF888359CFCF93DF93EC01FB018281B9
:10469000882309F464C1C330FDE5DF07E0F5CA3FB4
:1046A0009CE5D90730F49E0122503C452431310568
:1046B000D8F50E94440C9093230380932203C231C7
:1046C000ECE5DE0709F41FC108F06EC0C9308CE5C7
:1046D000D80709F4F2C008F03FC0C530ECE5DE07AA
:1046E00009F4DBC058F5C3308CE5D80709F4CDC018
:1046F00008F0CFC0809122038160C230DC4509F40C
:10470000AEC080912203909123030E94520C0E941C
:10471000F30680E009C0C53AEDE5DE0751F238F452
:10472000C1369DE5D90729F2DF91CF9108959E0109
:104730002D5A3D4523303105B8F7BBCF8091220378
:104740008062C730FCE5DF0709F489C008F4B1C016
:1047500080912203806483C0CD309CE5D90709F4A1
:10476000BAC070F4809122038E7FCB30FCE5DF0766
:1047700009F475C008F4A7C0809122038D7F6FC033
:10478000CF309CE5D90709F4B6C008F4A8C0C03101
:10479000FCE5DF0709F4B3C0C131DC4509F0B1CF56
:1047A000809122038F7B5BC0CF3F9CE5D90709F442
:1047B000B4C098F5CA3FFCE5DF0709F472C0B8F44D
:1047C000C4319CE5D90709F4B6C008F4A2C0C531CC
:1047D000DC4509F096CF8091220382FB992790F95E
:1047E00021E0922790FB82F990FB83F938C0CC3FFF
:1047F0008CE5D80709F477C008F457C0CD3FECE545
:10480000DE0709F474C0809123038360CE3FDC454A
:1048100009F077CF8093230374CFC1368DE5D80795
:1048200009F496C068F4C130EDE5DE0709F48CC0E8
:1048300008F477C0C230DD4509F063CF80E085C061
:10484000CD3A9DE5D907E9F068F490912203892FCC
:104850008E7F90FF8160C53ADD4509F052CF80938D
:1048600022034FCFCE3A8DE5D80789F1CF3ADD4507
:1048700009F047CF90912303892F877F93FF8860AA
:10488000C9CF809123038860C5CF809122038260C5
:10489000E6CF809122038460E2CF8091220388607A
:1048A000DECF809123038160B5CF809123038260A6
:1048B000B1CF809122038061D2CF0E94F306809114
:1048C00022038068CCCF809122038C60C8CF809176
:1048D0002303877F9FCF809122038B7FC0CF80915E
:1048E0002203877FBCCF809123038E7F93CF80915B
:1048F00023038D7F8FCF809122038F7EB0CF809155
:1049000022038F7DACCF0E94F306809122038F7724
:10491000A6CF80912203837FA2CF809123038C7F37
:1049200079CF80912303982F909591708E7F892B5A
:1049300090FB81F96FCF0E94F30690912203892F9B
:1049400097FB87F980588BCF81E00E94DE0CD9CE8F
:1049500090912203892F8F7E94FF806180CF81E028
:10496000E3CEB0E0A0E0E7EBF4E20C94FF31E82FF7
:10497000F0E0E450FE4FD490282F269526952695FA
:1049800030E0F901E456FD4F0491877010E0082EE5
:1049900002C0159507950A94E2F701701127F901F5
:1049A000E457FD4FE490F12C082E02C0F594E794F3
:1049B0000A94E2F791E0E922FF24F901E458FD4F5F
:1049C000C491D0E002C0D595C7958A95E2F7C17031
:1049D000DD270115110519F081EE0E941F04E11475
:1049E000F10419F086EE0E941F048D2D0E94A5048B
:1049F000E114F10419F086EE0E946304011511051B
:104A000019F081EE0E946304CD2B19F08CE20E9414
:104A1000A504CDB7DEB7E7E00C941B32EF92FF920E
:104A20000F931F93CF93DF93EC01162F0AE0888139
:104A3000882309F454C0813009F04EC08981813047
:104A400099F47E0122E0E20EF11C8A810E94A50405
:104A5000E7012196812F815050F3EFE9FFE0319774
:104A6000F1F700C00000F7CF823041F47E0182E010
:104A7000E80EF11C8A810E941F04EACF833041F4C2
:104A80007E01E2E0EE0EF11C8A810E946304E0CF19
:104A9000843011F02196DDCF2A81229690E080E0CB
:104AA000AE014F5F5F4F2053330B2A30310548F082
:104AB000019778F2EFE9FFE03197F1F700C00000CD
:104AC000F7CF089FB001099F700D1124C901860F0F
:104AD000971F2981EA01E4CF0E94B124BACFCDB754
:104AE000DEB7E6E00C941C328FE891E00197F1F715
:104AF00000C00000089581E08093060322982A9A5E
:104B000054985C9A0E9474252091060348E053E073
:104B1000FA018E2F841B821708F0089583B182FB5F
:104B2000882780F94C9904C090E0892B8193F1CFBC
:104B300092E0FBCFB0E0A0E0E0EAF5E20C94FE31B9
:104B4000F12CE12C84E0C82ED12C80910603F816BC
:104B500030F08E2DCDB7DEB7E8E00C941A320F2D71
:104B600010E0E3B1E2FBEE27E0F94C9940C080E0B1
:104B70008E2BD801A85FBC4FEC919E2F9370981795
:104B8000A1F1EE0FEE0FE82BEC93EF70F0E0EF5198
:104B9000FE4FE801C95FDC4F80819881890F8883CF
:104BA00020E084305CF0F801EB5FFC4F80818F5F88
:104BB000808360E08F2D0E94640221E088818D3F18
:104BC0005CF4F801EB5FFC4F80818150808361E0F1
:104BD0008F2D0E94640221E08881082E000C990B21
:104BE000B6010E9492318883E22AF394AECF82E02C
:104BF000BFCF84E0089550E0440F551F9AE0699FAD
:104C0000400D511D112498E2899F400D511D112422
:104C1000CA01879608950F931F93CF93DF93843033
:104C2000C8F46430B8F44530A8F40E94FB258C0128
:104C30000E94AD32C82FD0E0DC2FCC27C8010196EE
:104C40000E94AD329E01282BC901DF91CF911F91A7
:104C50000F91089590E080E0F8CF0F931F93CF93CA
:104C6000DF93122F032F843078F4643068F44530DA
:104C700058F40E94FB25EC01602F0E94CB32612F7B
:104C8000CE0101960E94CB32DF91CF911F910F91FF
:104C90000895B0E0A0E0EFE4F6E20C94FD319CEA68
:104CA000C92E90E0D92ED0E0C0E07601B12C20C012
:104CB0000E94990221E030E08C171D0641F03CF083
:104CC000F801EE0FFF1FEE0DFF1D25913491402FCF
:104CD0006B2D8C2F0E942D260F5F1F4F0530110565
:104CE00039F78AE0E80EF11CB39484E0B81619F0A5
:104CF00010E000E0DDCF219688E2C80ED11CC43060
:104D0000D10599F6CDB7DEB7E9E00C941932EF92F0
:104D1000FF920F931F93CF93DF93EC018A017C01E5
:104D2000E60EF71ECE018796CE15DF0529F4CDB726
:104D3000DEB7E6E00C941C32C03AD10540F40E9484
:104D4000AD32F80180830F5F1F4F2196EBCFF80142
:104D50001082F9CFB0E0A0E0E0EBF6E20C94FE3177
:104D60007C016A018C01060F171FEC01CE018796AA
:104D7000C017D10729F4CDB7DEB7E8E00C941A329A
:104D8000C03AD10540F4FE01EE19FF09EC0DFD1DFE
:104D900060810E94CB322196E9CF462F843040F4C7
:104DA000743030F4653020F4672F0E940B2608958C
:104DB00090E080E0089580E1089589E393E008950C
:104DC000EF92FF920F931F93CF93DF93EC018A0131
:104DD0007C01E60EF71ECE0189539F4FCE15DF05ED
:104DE00029F4CDB7DEB7E6E00C941C32C93323E0DA
:104DF000D20740F40E94AD32F80180830F5F1F4F4D
:104E00002196E9CFF8011082F9CFB0E0A0E0EBE005
:104E1000F7E20C94FE317C016A018C01060F171F2A
:104E2000EC01CE0189539F4FC017D10729F4CDB7AC
:104E3000DEB7E8E00C941A32C93323E0D20740F41D
:104E4000FE01EE19FF09EC0DFD1D60810E94CB32C1
:104E50002196E7CFCF93DF93C7ECD0E060E0CE019F
:104E60000E94CB322196C11584E0D807B9F7DF91B3
:104E7000CF910895A4E0B0E0E0E4F7E20C94FF31B4
:104E8000F82E8FE08F1548F18FEF93E00E94AD323E
:104E9000811123C007EC10E0F11023C019821A829F
:104EA0001B821C82DD24D39478018FEFE81AF80A64
:104EB000C8010E94AD3289831A82882371F09FEF66
:104EC000980F9330D8F48A83D9820E5F1F4FC701A1
:104ED0000E94AD328B83811112C02496E7E00C94BE
:104EE0001B32011584E01807C1F3C8010E94AD32DE
:104EF000811101C0FA940F5F1F4FCECF870160E090
:104F0000CE0101960E940E25CFCFCF93DF93EB0108
:104F100086319C4511F50E94400B9A81992399F0A6
:104F20008A7A91E009F490E090930903811109C015
:104F300089E20E94180B0E94810B80E0DF91CF91E3
:104F4000089585E3F6CF80910903811104C089E2B9
:104F50000E94200BF0CF85E3FBCF81E0EFCF0F93D2
:104F60001F93CF93DF93C42FD22FFC01828188231C
:104F7000C9F040930C030E94AD2990930B038093DA
:104F80000A0380E28C0F883040F4C77081E001C0D2
:104F9000880FCA95EAF70E94AE04DF91CF911F9166
:104FA0000F91089510910C03141332C080910A03DD
:104FB00090910B030E94C529883C910548F5C0E2F9
:104FC000CD0F1D17B9F080E2810F883040F41770C3
:104FD00081E001C0880F1A95EAF70E94B504C83035
:104FE00048F481E09D2F977001C0880F9A95EAF7E9
:104FF0000E94AE04802F0E94A504C83070F6D770BE
:1050000081E001C0880FDA95EAF70E94B504C5CFA8
:1050100080E28C0F883008F6C77081E001C0880FED
:10502000CA95EAF7F2CF0F939C01CB01233F4CE5E1
:10503000340759F1A8F4283DFCE53F0701F1293D6B
:105040004CE53407D1F1273D3C4591F406E221EED1
:1050500041EE67ED7CE50E94AF2780E00F91089557
:10506000253FFCE53F07E9F0B0F0263F3C45F9F06D
:10507000FC018281882339F110920C03EFCF07E203
:1050800025EE45EE68ED7CE5E6CF06E221EE40EE4A
:1050900063EF7CE5E0CF07E225EE44EE64EF7CE5CC
:1050A000DACF06E221EE42EE65EF7CE5D4CF07E2EF
:1050B00025EE46EE66EF7CE5CECF08E221E045EE38
:1050C00069ED7CE5C8CF81E0C9CF90930102809360
:1050D0000002089590931203809311030895E091C4
:1050E0001103F0911203309729F00190F081E02D27
:1050F0000995089580E00895E0911103F09112035D
:10510000309721F00280F381E02D099508952091D8
:105110000F03309110032817390771F09093100393
:1051200080930F03E0911103F0911203309721F067
:105130000680F781E02D0995089520910D033091A7
:105140000E032817390771F090930E0380930D0317
:10515000E0911103F0911203309721F00084F18562
:10516000E02D099508959C012E5F3F4FAC01485FEB
:105170005F4F80E02417350709F40895F9019191F4
:105180009F019923B9F38F5FF5CF662349F0FC01A6
:10519000329608962191261729F0E817F907D1F7DA
:1051A00080E0089581E008959C01FC0132969FEF14
:1051B00080E04191461751F09F3F19F4411101C021
:1051C000982F8F5F8630A9F79F3F09F40895290F24
:1051D000311D97FD3A95F90162830895FC013296DD
:1051E00008962191261303C0DF0111971C92E8173E
:1051F000F907B9F708950E94D42808950E94EE286F
:105200000895029626E0FC0111922A95E9F7089587
:1052100008950E9408290895811106C081E08093B5
:1052200013030E940929089582E0F9CF83E0809357
:1052300013030E94092908950E940C29089581E012
:10524000809313030E94092908950E941F2908953D
:10525000089508950E9429290895089508950E94A7
:1052600028290895CF930E942D290E9483100E941F
:105270002E29C0E08C2F0E94CB0F811105C0CF5F7B
:10528000C430C1F7CF91089581E0FCCF85B7806825
:1052900085BF85B7806885BF08951F921FB61F928E
:1052A00011248F939F93AF93BF9380911403811127
:1052B00013C080918F0390919003A0919103B091BE
:1052C00092034196A11DB11D80938F03909390038B
:1052D000A0939103B0939203BF91AF919F918F914F
:1052E0001F901FBE1F90189580919703843031F155
:1052F0000E948F031092140388E190E020E40FB61F
:10530000F894A895809360000FBE2093600083B747
:10531000817F846083BF83B7816083BF78948895E1
:1053200083B78E7F83BF0FB6F894A89580916000F5
:10533000886180936000109260000FBE08950E9403
:10534000F3060E949903089582E084BD93E095BD21
:105350009AEF97BD80936E0008952FB7F8948091CF
:105360008F0390919003A0919103B09192032FBF6E
:1053700008952FB7F89460918F03709190038091F6
:105380009103909192032FBF08959C014FB7F89419
:1053900080918F0390919003A0919103B09192031B
:1053A0004FBF821B930B0895CF92DF92EF92FF9233
:1053B0002FB7F894C0908F03D0909003E0909103A2
:1053C000F09092032FBFA7019601261B370B480BC5
:1053D000590BCA01B901FF90EF90DF90CF9008956B
:1053E00078941F921FB61F9211248F939F93AF93AF
:1053F000BF9380918F0390919003A0919103B091FE
:1054000092030196A11DB11D80938F039093900389
:10541000A0939103B0939203BF91AF919F918F910D
:105420001F901FBE1F90189587E797E7909301087C
:105430008093000888E19AE00FB6F894A8958093CD
:1054400060000FBE90936000FFCF88E19AE00FB636
:10545000F894A895809360000FBE90936000FFCFF2
:105460008091200308950895CF93DF93EC0181E0AC
:105470008093E9008FEF9091E800815095FD06C080
:1054800095ED9A95F1F700008111F5CF8091E80034
:1054900085FF14C050E040E068E070E0CE010E945B
:1054A000A82C8091E8008E778093E80088E0FE01C8
:1054B000A8E1B3E001900D928A95E1F7DF91CF91D9
:1054C00008958093150370931703609316038091DA
:1054D00097038430F9F48093E9008FEF9091E8000E
:1054E000815095FD06C095ED9A95F1F70000811168
:1054F000F5CF8091E80085FF0DC050E040E063E00B
:1055000070E085E193E00E94A82C8091E8008E77FE
:105510008093E8000895BC0184E00E94612A089508
:10552000BC0183E00E94612A08950895CF93FC0195
:10553000603221F580919703843001F5C091E90034
:10554000CF702091EC00922F917020FD90E8C92B34
:1055500082E08093E9008091E80080FF0CC050E079
:1055600040E060E270E0CF010E94A82C8091E8004A
:105570008E778093E800CF70C093E900CF910895B3
:1055800080919603811109C00E94872E0E94E42E0B
:105590008091E20084608093E20008951092960367
:1055A00008950E941F2908956091930381E061117D
:1055B00001C080E00E94162908959091970381E030
:1055C000943009F080E0609193030E941C290895B3
:1055D00042E061EC81E00E94032E42E261EC84E053
:1055E0000E94032E42E261EC82E00E94032E42E21E
:1055F00060EC83E00E94032E9091970381E0943049
:1056000009F080E0609193030E940C290895809135
:105610009903833009F463C030F48130E1F18230C2
:1056200009F4A0C008958A3009F48CC08B3009F4C5
:1056300071C0893009F052C080919803813209F01D
:105640004DC080919C0390919D03009719F00297A3
:1056500009F044C08091E800877F8093E800809142
:10566000E80082FF37C09091F3008091F20002972A
:1056700031F48091F100813011F0863021F4809175
:10568000F100809320038091E8008B778093E800FD
:105690000E94372E23C080919803813AF9F48091BB
:1056A000E800877F8093E80080919C0390919D03A0
:1056B000892B61F468E088E193E070E00E94462D58
:1056C0008091E8008B778093E800089560E090E097
:1056D00080E0F3CF809197038111C1CF089580912D
:1056E0009803813AD9F780919C0390919D03892B6F
:1056F000A9F78091E800877F8093E8008091E80017
:1057000080FFFCCF80915E018093F1008091E800E2
:105710008E77BCCF80919803813201F780919C03F2
:1057200090919D03892BD1F68091E800877F80932B
:10573000E8000E94372E80919A0380935E010E94B8
:10574000F306089580919803813241F68091E80034
:10575000877F8093E8000E94372E80919B0380937F
:105760002103089580919803813A09F0B7CF809181
:10577000E800877F8093E8008091E80080FFFCCFFD
:1057800080912103C1CF84B7877F84BF0FB6F8947F
:10579000A8958091600088618093600010926000FD
:1057A0000FBE80E890E00FB6F8948093610090936C
:1057B00061000FBE0E94252908950E94872E0E9435
:1057C000E42EE2EEF0E080818460808378940E9491
:1057D0006331089582E591E00E946A2808958091DE
:1057E0009703853031F480919703853019F00E943A
:1057F0009F2908950E94742980919503882399F325
:105800000E943229882379F30E94922C0E94F30689
:10581000EACFA0E2B0E0EFE0FCE20C940432809129
:105820009703843009F583E08093E9008091E800D4
:1058300082FF1AC08091E80090E085FF09C050E027
:1058400040E060E270E0CE0101960E94F72C91E00A
:105850008091E8008B778093E800992329F060E23B
:10586000CE0101960E948522A096E2E00C9420329F
:105870000E943B2C0895292F33272330310521F135
:1058800068F42130310509F443C02230310509F4B0
:1058900044C090E080E030E020E026C021323105B5
:1058A00051F122323105A9F76330710590F7FB0100
:1058B000EE0FFF1FEC50FE4F208131816F507E4F65
:1058C000FB01808190E010C099278130910581F023
:1058D000009729F00297E9F6ECEAF2E002C0E6ED63
:1058E000F2E0849190E09F01FA01318320830895D2
:1058F000EEEBF2E0F6CF6330710558F6660F771FD6
:10590000FB01E650FE4F2081318189E090E0ECCF31
:1059100082E190E025E333E0E7CF8BE590E02AEDEC
:1059200032E0E2CF80E189BD82E189BD09B400FEA9
:10593000FDCF8091D8008F7D8093D8008091E000CA
:1059400082608093E0008091E00081FDFCCF0895AB
:10595000AF92BF92CF92DF92FF920F931F93CF939C
:10596000DF936C01EB018A010E94562EF82E811103
:1059700023C00115110539F0F80180819181C81B00
:10598000D90BC80ED91EB12CA12C2097A9F080915B
:10599000E80085FD22C08091E8008E778093E800C2
:1059A00001151105A1F0F80180819181A80EB91EA1
:1059B000B182A08285E0F82E8F2DDF91CF911F91CB
:1059C0000F91FF90DF90CF90BF90AF9008950E940D
:1059D000562E8823D1F2F82EEFCFF60181916F0178
:1059E0008093F1002197FFEFAF1ABF0ACECFAF929D
:1059F000BF92CF92DF92FF920F931F93CF93DF93CB
:105A00006C01EB018A010E94562EF82E811123C0F1
:105A10000115110539F0F80180819181C81BD90B5E
:105A2000C80ED91EB12CA12C2097A9F08091E800B6
:105A300085FD22C08091E8008B778093E8000115F6
:105A40001105A1F0F80180819181A80EB91EB182E3
:105A5000A08285E0F82E8F2DDF91CF911F910F91BD
:105A6000FF90DF90CF90BF90AF9008950E94562E88
:105A70008823D1F2F82EEFCF8091F100F6018193C7
:105A80006F012197FFEFAF1ABF0ACECFFC018091C3
:105A90009E0390919F0386179707A0F061157105EB
:105AA00029F49091E8009E779093E80090E06115CA
:105AB000710551F4911108C08091E80082FF34C053
:105AC00080E00895BC01F2CF809197038823C1F153
:105AD0008530C1F18091E80083FD30C08091E800FD
