:100000000C94B9020C94D6020C94D6020C94D6022D
:100010000C94D6020C94D6020C94D6020C94D60200
:100020000C94D6020C94D6020C94DF260C949B26DA
:100030000C94DC270C94D6020C94D6020C94D602B5
:100040000C94D6020C94D6020C94D6020C94D602D0
:100050000C94D6020C94B8270C94D6020C94D602B9
:100060000C94D6020C94D6020C94D6020C94D602B0
:100070000C94D6020C94D6020C94D6020C94D602A0
:100080000C94D6020C94D6020C94D6020C94D60290
:100090000C94D6020C94D6020C94D6020C94D60280
:1000A0000C94D6020C94D6020C94D6020501098059
:1000B000A101850319012AB700150126B700950192
:1000C00075108100C0050C0901A101850419012AE0
:1000D000A002150126A002950175108100C00660DE
:1000E000FF0961A1010962150026FF00952075082E
:1000F00081020963150026FF00952075089102C052
:1001000005010906A101050719E029E715002501E8
:10011000950875018102950175088101050719008F
:1001200029FF150026FF00950675088100050819AE
:10013000012905950575019102950175039101C08D
:10014000FD377A585A000004E6D6B4460200210171
:1001500016000000742FE5A3E0014600BC5D003DE1
:100160008889C65436C3174FE4F0523D1CF29C49AF
:10017000F3710610FC7E103B8E08BC6CA245A904EE
:100180006123B85480D3F0EC365698FFBDF799E45C
:1001900062B7463302BC185D4946182A891688960C
:1001A000C0236491423EA44617FED0436D34BF92F3
:1001B000D4433520EE33329D02C7A078B2AD060796
:1001C000DDFCCD1BAB201CC3AE7B7DB6D34D479B66
:1001D00035177DAAF3B96B75E6C25601B1180556FD
:1001E000006CF0DF10638A6C6159D927791C788222
:1001F0009E2F90068109A580323849DE03E35F6EA9
:100200004C06AB8EDB2FC906320E7B94E7655D454D
:10021000B49103835638A664D3130D00F6B1A1251B
:100220009C77E13A0001D801C7020000FE6146E870
:10023000B1C467FB020000000004595A000000002E
:1002400001001D0002000100030002000400030081
:100250000600040007000500080006000C00070067
:100260000E0008001300090018000A0019000B0016
:100270001D000F001E0010001F00110020001200C2
:100280002100130022001400230015002400160092
:1002900025001700260018002700190028001A0062
:1002A00029001B002A001C002B000C002C000E0053
:1002B0000001010101010101010102020202020229
:1002C00002020203030303030303030404040404FC
:1002D00004040505050505060606060607070707C3
:1002E0000708080808090909090A0A0A0B0B0B0C78
:1002F0000C0C0D0D0D0E0E0E0F0F0F101011111115
:100300001212131314141515161617171818191995
:100310001A1A1B1B1C1D1D1E1E1F202021222223FA
:100320002424252626272829292A2B2C2D2D2E2F3B
:1003300030313232333435363738393A3B3C3D3E52
:100340003F404142434445464748494A4C4D4E4F41
:1003500050515354555658595A5B5D5E5F61626403
:10036000656668696B6C6D6F7072737577787A7B90
:100370007D7E8082838587888A8C8E8F91939596E7
:10038000989A9C9EA0A2A3A5A7A9ABADAFB1B3B507
:10039000B7BABCBEC0C2C4C6C9CBCDCFD1D4D6D8E3
:1003A000DBDDDFE2E4E7E9EBEEF0F3F5F8FAFDFF81
:1003B000A900AA00C35CC45C00005F00600061008B
:1003C000560000005C005D005E0057000000590010
:1003D0005A005B005500A800015862000100280087
:1003E0000000C25CCA5CC95C005C00000000C65C26
:1003F000C55C000000000000C85CC75C0000000095
:100400000100CC5CCB5C000009025B00030100A092
:10041000FA09040000010301010009211101000192
:1004200022400007058103080001090401000203BE
:1004300000000009211101000122220007058203AA
:100440002000010705030320000109040200010345
:100450000000000921110100012232000705840378
:100460002000011201000200000008AFDE13091095
:1004700000010203011C037600690061006C003A70
:10048000006600360034006300320062003300630F
:100490000000001003640075006D006200700061D0
:1004A0000064000000160369006D006300680069C5
:1004B00000700077006F006F006400000004030903
:1004C0000400000000000000000000000000000028
:1004D000000000000000000000000000000000001C
:1004E00000000000007E0F00D4FFFFFFC7000000E7
:1004F0007800000000000000002A2B280000000007
:1005000000000000000000000000000029000000C2
:10051000002C1E3420212224342627252E362D3768
:1005200038271E1F202122232425263333362E3739
:10053000381F0405060708090A0B0C0D0E0F1011D1
:1005400012131415161718191A1B1C1D2F313023DE
:100550002D350405060708090A0B0C0D0E0F1011A6
:1005600012131415161718191A1B1C1D2F313035AC
:100570004C0011241FBECFEFDAE0DEBFCDBF23E079
:10058000ACECB1E001C01D92A839B207E1F711E06F
:10059000A0E0B1E0E8ECF3E602C005900D92AC3CBF
:1005A000B107D9F70E9403280C94A0310C940000E5
:1005B000E8EDF0E080818E7F80831092E20010925F
:1005C000DA001092E100A0EEB0E08C9181608C9393
:1005D00080818F77808319BCA7EDB0E08C918E7FEE
:1005E0008C9380818F7E808310924A03089520919E
:1005F000E4003091E50095E6A9012091EC00822FFE
:10060000817020FF06C08091E80080FF06C080E076
:1006100008952091E80022FD1AC080915703882395
:1006200089F0853089F08091EB0085FD0FC0209125
:10063000E4003091E50042175307F9F29150E1F6DA
:1006400084E0089582E0089583E0089581E00895AC
:10065000EF92FF920F931F93CF937C018B010E9427
:10066000F702C82F811117C08091E80085FD0BC0EB
:100670008091E8008E778093E8000E94F70288233B
:1006800099F3C82F08C0F70181917F018093F10091
:100690000150110949F78C2FCF911F910F91FF90B5
:1006A000EF9008958091590387FF13C08091E8006F
:1006B00082FF06C08091E8008B778093E80004C039
:1006C000809157038111F2CF0895809157038823B9
:1006D000D9F38091E80080FFF8CF8091E8008E7711
:1006E000ECCF982F9093E900242F762F50E08917B4
:1006F00031F07091EC002091ED005091F00021FD5F
:1007000007C09F5F973071F78093E90081E00895FB
:100710003091EB003E7F3093EB003091ED003D7F58
:100720003093ED003091EB0031603093EB0070932B
:10073000EC002093ED005093F0002091EE0027FD97
:10074000E0CF80E00895B0E0A0E0E9EAF3E00C94A7
:100750003C30C8EDD0E088818F7E8883E7EDF0E003
:1007600080818160808384E082BF81E080934A033E
:1007700088818E7F888302EE10E0F801108210924B
:10078000DA0081EEC82ED12CF601108288818F7795
:10079000888388818068888388818F7D888319BC5D
:1007A000109257031092580310925603109255035B
:1007B00090EEE92EF12CF70180818B7F8083888178
:1007C0008160888342E060E080E00E947103F6016E
:1007D00080818E7F8083F801808181608083808129
:1007E00088608083F70180818E7F8083888180612B
:1007F0008883CDB7DEB7E8E00C945830FC018091D7
:100800005F039091600386179707A0F0611571054B
:1008100029F49091E8009E779093E80090E06115AC
:10082000710551F4911108C08091E80082FF34C035
:1008300080E00895BC01F2CF809157038823C1F175
:100840008530C1F18091E80083FD30C08091E800DF
:1008500082FDEACF8091E80080FFE1CF8091F30034
:100860002091F200382F6115710519F028303105FB
:1008700058F091E02830310509F090E02091E8002F
:100880002E772093E800CBCF81918093F1006150C7
:1008900071092F5F3F4FE7CF80915703882341F0C5
:1008A000853041F08091E80083FFBECF81E008955C
:1008B00082E0089583E008950895089580914C039F
:1008C000089587E797E7909301088093000888E1EF
:1008D0009AE00FB6F894A895809360000FBE9093AD
:1008E0006000FFCF9C014FB7F89480914303909133
:1008F0004403A0914503B09146034FBF821B930B65
:1009000008952FB7F8946091430370914403809148
:100910004503909146032FBF08952FB7F894809117
:10092000430390914403A0914503B09146032FBF28
:1009300008959C01FC0132969FEF80E0419146179B
:1009400051F09F3F19F4411101C0982F8F5F8630FD
:10095000A9F79F3F09F40895290F311D97FD3A9596
:10096000F9016283089520914003309141032817D3
:10097000390771F09093410380934003E0913E0367
:10098000F0913F03309721F00084F185E02D099527
:10099000089520913C0330913D032817390771F0E9
:1009A00090933D0380933C03E0913E03F0913F031D
:1009B000309721F00680F781E02D09950895E091A8
:1009C0003E03F0913F03309729F00190F081E02D34
:1009D0000995089580E00895FA01811101C0FB0195
:1009E00009950895E8E0F3E08183608342833396BC
:1009F00093E0E833F907C1F70895FC01EE0FFF1FFC
:100A0000E80FF91FE85FFC4F61834083228308955C
:100A1000FC019B01AC0197FF04C044275527481BEC
:100A2000590BBA01620F731F37FD0FC0241B350B22
:100A3000C901A5E0880F991FAA95E1F70E9411301E
:100A400080E2861BF7FD81950895CB0165E0880F54
:100A5000991F6A95E1F7BA01621B730B0E9411306E
:100A600080E6EFCFE5E6F3E0248130E1231B08F4D4
:100A700020E0248380910703816080930703089519
:100A8000E5E6F3E0248130E1230F08F42FEF24831F
:100A90008091070381608093070308959091650317
:100AA000937059F0809366036093670340936803E3
:100AB00080910703822B809307030895E5E6F3E016
:100AC000438120E1421B08F440E0818121E0628102
:100AD00090E00E944E050895E5E6F3E0438120E1B1
:100AE000420F08F44FEF818121E0628190E00E9483
:100AF0004E050895E5E6F3E0628120E1621B08F40B
:100B000060E0818121E0438190E00E944E050895DC
:100B1000E5E6F3E0628120E1620F08F46FEF818186
:100B200021E0438190E00E944E050895E5E6F3E060
:100B3000818121E0438162818850990B0E944E059A
:100B40000895E5E6F3E0818190E021E04381628150
:100B500008960E944E05089590916503937061F088
:100B600081110BC0946090936503109214018091E1
:100B70000703862B8093070308958E3110F0946746
:100B8000F2CF880F880F982BEECF80916503869562
:100B90008695815009F48DE161E00E94AC050895CD
:100BA00080916503869586958F5F8E3108F081E090
:100BB00061E00E94AC050895EF92FF920F939701B8
:100BC000201B31092F3F310519F010F02FEF30E0D5
:100BD0002095382F320F08F43FEF832F0F91FF90AD
:100BE000EF900895EF92FF920F939701201B310928
:100BF0002F3F310519F010F02FEF30E0322F3095F4
:100C0000482F430F08F44FEF842F620F0F91FF908E
:100C1000EF900895EF92FF920F93972F093438F4D5
:100C2000B701601B71096F3F710519F010F06FEF8C
:100C300070E0485F5F4F4131510540F0A901485FC6
:100C40005F4F4131510510F06FEF70E06095482F14
:100C5000460F08F44FEF842F37FF02C02D5F3F4F40
:100C6000359527953595279560916603620F792F05
:100C70000F91FF90EF900895EF92FF920F931F93C3
:100C80000E0D1F2D111DF90137FF03C0F195E195E0
:100C9000F10924E0EE0FFF1F2A95E1F7EF3FF10580
:100CA00019F014F0EFEFF0E09A0157FF03C031950F
:100CB0002195310994E0220F331F9A95E1F72E1701
:100CC0003F070CF4F901E00FF11FEF3FF10519F0B8
:100CD00010F0EFEFF0E0E095282F3E2F230F08F4FF
:100CE0002FEF822F1F910F91FF90EF900895EF92B9
:100CF000FF920F93970195E0099F200D311D11245C
:100D00002F3F310519F010F02FEF30E02095382FEC
:100D1000320F08F43FEF832F0F91FF90EF9008956B
:100D200022E8241B08F420E0620F08954095282F44
:100D3000429F412D1124842F0895E42FF0E0EE0FFF
:100D4000FF1FE556FE4F6081621B0895E42FF0E01F
:100D5000EE0FFF1FE556FE4F408134EE439F412DBD
:100D60001124E82FF0E050E0445E5F4FDA01A21B4F
:100D7000B1099D01B7FF03C031952195310993E079
:100D8000220F331F9A95E1F7AF01421B530B9A01D3
:100D900057FD20E0582F259F212D1124822F0895E3
:100DA000E42FF0E0EE0FFF1FE556FE4F408134EEDA
:100DB000439F412D1124E72FF0E050E0445E5F4F48
:100DC000DA01A21BB1099D01B7FF03C0319521953E
:100DD000310993E0220F331F9A95E1F7AF01421BCF
:100DE000530B9A0157FD20E0279F212D1124722FCC
:100DF00008950E94F20408950E94FD0408950F933F
:100E0000CF93DF93D72FC82FC901009729F480E82B
:100E100057FD05C080E003C0BA010E940805602F9D
:100E2000680F7D2F8C2FDF91CF910F910895EF9256
:100E30000F931F93CF93DF93D62FC72F182FC9017E
:100E40000E19010F009729F480E857FD05C080E0D6
:100E500003C0BA010E940805081B202F219F212DE5
:100E60001124822F6D2F7C2FDF91CF911F910F9135
:100E7000EF900895409110015091110125E038E064
:100E8000429FC001439F900D529F900D1124875E99
:100E9000994C9093110180931001890F0895AC0132
:100EA0008230910508F408959FEF413E8EE1580786
:100EB00040F49A0195E0369527959A95E1F798E0E8
:100EC000920F61E0E62FE90FFF27FF1F9F01359585
:100ED0002795822F229FF001239FF00DF00D112402
:100EE0004E175F0738F49FEF920F961758F78FEF62
:100EF000860F08952F3FE9F361E0620FF6CF30E0EF
:100F000020E0869F212D969F200D311D1124C901BF
:100F100008952091690330E1230F08F42FEF60E179
:100F2000822F90E00E947F07BC0188EB9BE00E942B
:100F3000FD2F90E080E00895AF92BF92CF92DF92B4
:100F4000FF920F931F93CF93DF93362F472FE82FF6
:100F5000F0E0E055FD4F71110FC0E4918E2F2E2F60
:100F60006E2F722FDF91CF911F910F91FF90DF9025
:100F7000CF90BF90AF900895C72FD0E02491F22E6C
:100F8000022F10E056E0659FC0011124EFEFF0E062
:100F9000BF010E94FD2F832F90E0880F991F35E538
:100FA000369FD001379FB00D11248A1B9B0B982FC1
:100FB000990F980F6F01CC1ADD0AC09ED001C19E17
:100FC000B00DD09EB00D11248B2F499FA00111248C
:100FD000452F55276F01C41AD50AC09EA001C19E96
:100FE000500DD09E500D11245F01A91AB108AC9E7E
:100FF0006001AD9ED00CBC9ED00C1124CD2CDD2404
:10100000EC19FD09E09FE001E19FD00DF09FD00DAC
:101010001124ED2F62307105A1F050F461157105B6
:1010200009F49ECF6130710581F0EB2F852F98CFA9
:101030006430710569F080F06630710509F490CF75
:10104000F4CFE22F2B2F8D2F8BCFE22F252F88CFA0
:10105000EB2F822F2D2F84CF2B2F8F2DE52F80CF9D
:10106000B0E0A0E0E6E3F8E00C943D308C01FC0138
:10107000E957FE4F84A9682349F1D0906703D091C6
:101080006803C0916603EC2EF12C0E943A07282FCA
:10109000C7018C549F4F68E671E00E9411308E1991
:1010A0009F0997FD0396959587959595879523704C
:1010B0006C2F289F600D11247D2D8D2F0E949C0781
:1010C000462F282F672FC8010E94FC06CDB7DEB738
:1010D000E7E00C9459302F923F925F926F927F928B
:1010E0008F929F92AF92BF92CF92DF92EF92FF9238
:1010F0000F931F93CF93DF93CDB7DEB72A970FB629
:10110000F894DEBF0FBECDBF8B837E836D832091AD
:101110001801220F220F2F832C5F29832A8321316C
:1011200010F030E13A8380916B038C83FF81EF2FC5
:10113000F0E0FA87E987CF01880F991F9C012957B2
:101140003E4F69013B81832F90E0FC013196F88787
:10115000EF838A8199859817E8F081E0E981E03191
:1011600008F080E02A960FB6F894DEBF0FBECDBF20
:10117000DF91CF911F910F91FF90EF90DF90CF9073
:10118000BF90AF909F908F907F906F905F903F90B7
:101190002F900895E985FA85E957FE4F84A990912B
:1011A00019018923F1F020906603309067032F81A5
:1011B000388525593C4F39015B8010E0FC815F1672
:1011C000D0F020916803129F112D1124B101812FBD
:1011D0000E949C07462F282F672F89859A850E9499
:1011E000FC0629853A852F5F3F4F3A87298732E0F1
:1011F000C30ED11CAECFF30181913F01F601A4884B
:10120000A81ABB088588F3018781881A9908AA9CC7
:101210009001AB9C300D300D1124889CC001899C3D
:10122000900D900D1124820F931F0E944F07082FDD
:101230006091690321E0620F08F46FEFF301EE0F94
:10124000FF1FEB56F340858996890E947F077C013A
:101250009401A501B101812FED81FE8109951B014A
:101260005394182FABCFB0E0A0E0E9E3F9E00C9481
:101270003C308C01C0911801CC0FCC0F24E0D22E51
:10128000DC0ECD2C20E12D1510F490E1C92E20911B
:10129000690331E0230F08F42FEF30E050E040E025
:1012A0006FEF7FEF80E090E00E943D317901D0E068
:1012B0002C2FCC1550F081E0FFE0FD1508F480E004
:1012C000CDB7DEB7E8E00C945830FE01E957FE4F89
:1012D00084A990911901892311F140916B03415028
:1012E000042E000C550B47FF1CC0C7016091690319
:1012F00021E0620F08F46FEF0E947F07AC0160915C
:1013000066037091670380916803F80109950E9454
:101310009C07462F282F672FCE010E94FC0621969E
:10132000C7CFFA01E559FC4F818982130AC0FA013F
:10133000EE0FFF1FE559FC4F818D928D8E159F0595
:10134000A8F241505109CFCFB0E0A0E0EAEAF9E0BD
:101350000C943D307C01C0911801CC0FCC0F14E0EF
:101360001C0F012F113108F000E1609169036695AF
:10137000669521E0620F08F46FEF80916103909110
:1013800062030E947F07D82ED0E0C01748F081E0AA
:10139000103108F080E0CDB7DEB7E7E00C945930AB
:1013A000FE01E957FE4F84A990911901892391F01C
:1013B0006091660370916703809168032D2D4C2F17
:1013C000F70109950E949C07462F282F672FCE0111
:1013D0000E94FC062196D9CF80E00895F894E82F6A
:1013E000E295EF70F0E031A1282F2F7081E090E0BE
:1013F00001C0880F2A95EAF7982F9095932391A31F
:1014000092A1892B82A3789408959091340292FF3F
:1014100006C0282F28712830F9F4877F846093FF55
:1014200006C0282F28712831F1F4877E846120912D
:10143000350220FF06C0382F38713830D9F4877F45
:10144000816021FF06C0282F28712831D1F4877EC2
:10145000816194FD877E0895282F24712430F9F648
:101460008B7F8860DCCF282F2471243101F78B7E9D
:101470008861DDCF382F3171313019F78E7F886068
:10148000E0CF282F2171213121F78E7E8861E1CFB5
:10149000CF93DF93EC0182389105B1F108F040C0A1
:1014A0008133910509F49DC048F58932910509F40D
:1014B0008DC08A9709F49CC0C11522E5D20708F0B7
:1014C000BDC0C11531E5D30708F025C1C83ED1051F
:1014D00008F0A3C0C13ED10588F5C83AD10508F08F
:1014E0008EC0C53AD10508F0F6C0C130D10531F142
:1014F000209721F1C430D10508F545C08533910509
:1015000009F45FC0C997C1F680913402837009F075
:1015100037C18091350283FF11C0C9E2D0E00EC00F
:10152000833E910599F170F4803E910501F1823E70
:10153000910511F68091340282FD21C0CE01DF9128
:10154000CF910895863E910561F1873E910571F135
:10155000843E910509F0B0CF8091350281FFEECF36
:1015600080913402C7EED0E084FD0DC0E7CF8091BA
:10157000340280FD33C09091350290FFDFCFC3EE7F
:10158000D0E084FFDBCFD0E0C0E0D8CF8091340240
:1015900082FDF3C09091350290FDF2C084FFCECF62
:1015A000F2CF8091340283FDDDCFC8CF8091340229
:1015B00083FDE9C09091350291FFF0CFC4EED0E0F9
:1015C000BDCF8091340285FFB9CFA7CF809134027F
:1015D00085FDDCC08091350283FFB0CFC9E3D0E048
:1015E000ADCF8091340286FFA9CFCAE2D0E0A6CF6A
:1015F0008091340286FFA2CFC1E3D0E09FCFCF3BE2
:10160000D10508F6C85AD0E0CC0FDD1FC75DDE4F0C
:101610000990D881C02DD46491CFC11540E5D4077D
:1016200008F064C0C11580E4D80708F05CC0CE01A2
:101630009A9581159F4108F481CFA5CFC11536E554
:10164000D30718F5C11545E5D40708F07DC0C115CD
:1016500084E5D80708F073C09C2F969596959E0157
:1016600023703327C115D34508F45AC0C1E0D0E038
:1016700002C0CC0FDD1F2A95E2F730E2939FC00134
:101680001124C82BD92BDA6859CFC1158AE5D807A0
:1016900078F4C11529E5D20708F061C0C11538E515
:1016A000D30708F470CFDC2FCC27C06FD06A46CFA9
:1016B000CE0190568115904208F065CF8D2F8F7125
:1016C0000E94050A90E0982F882788279F719C0127
:1016D0002C2BE90142C0C55AD0E0CA5DDE4FC8815B
:1016E000D0E0D0642BCFDF70D06A28CF2C2F269586
:1016F0002695237080E2289F900111248C2F8370FF
:10170000C1E0D0E002C0CC0FDD1F8A95E2F7C22B0A
:10171000D32BDD6813CFDC2FCC27C16FD06A0ECF5F
:10172000C1E0D0E002C0CC0FDD1F2A95E2F720E235
:10173000929FC0011124C82BD92BDC68FFCEDC2F6F
:10174000CC27C46FD06AFACE8C2F0E94050AC82F0E
:10175000D0E0DC2FCC27CC27DF71D062EFCE8C2FEE
:101760008F700E94050A34E0D695C7953A95E1F747
:10177000CF709C2FEC01D069E1CEC2EED0E0DECE7E
:10178000C0EED0E0DBCEC6EED0E0D8CEC5E3D0E0F0
:10179000D5CE80912B02882331F010922B0210922B
:1017A0002A02109229020895809590912802982388
:1017B00090932802089510921E0210921D0210921A
:1017C0001C02089580911B029091EA01981301C0B8
:1017D00008958F5F8770FACFA82FA77023E09695A2
:1017E00087952A95E1F7FC01EE0FFF1FE80FF91F1F
:1017F000E60FF71F50E040E080E0219130E00A2E34
:1018000002C0369527950A94E2F721703327042EFB
:1018100001C0220F0A94EAF7822B4F5F5F4F4330DB
:10182000510559F70895903FC9F0943080F4853000
:10183000A8F4282F30E06BED71E0A901E5E09E9F50
:10184000400D511D1124CA010E94EC0B08959C5FAC
:10185000923020F468ED71E090E0F6CF80E00895DA
:10186000262F277091E001C0990F2A95EAF723E00F
:10187000769567952A95E1F7FB01EE0FFF1FE60FBE
:10188000F71FE40FF51F50E040E0682F70E08191F2
:10189000DF0111979B01042E02C0369527950A940B
:1018A000E2F7217021952827292328272C934F5FC1
:1018B0005F4F4330510559F70895282F862F903FE9
:1018C00079F0943070F4253058F4622F70E025E000
:1018D000929F600D711D11244BED51E00E94300C60
:1018E00008959C5F9230E0F7622F70E048ED51E080
:1018F000F5CF80FD02C02E9A08952E980895982F56
:1019000092959F7011F0892F94E0282F26952695A7
:1019100011F09E5F822F869509F09F5F892F0895B1
:101920009C013A9521153F4150F5FC01EE27F170DD
:10193000BC0166277270AC01442754709C012227B9
:10194000387094FF0EC080E1EF2B09F480E0672B24
:1019500009F08062452B09F08064232B89F08068B0
:10196000089581E0EF2B09F480E0672B09F0826095
:10197000452B09F08460232B19F08860089580E0DE
:101980000895CF93C82F0E947F0C80FF07C0299A2B
:1019900081FF06C02B9A8C2FCF9108952998F8CFFC
:1019A0002B98F9CF29982B982E9808958093470368
:1019B0007093490360934803809157038430F9F48E
:1019C0008093E9008FEF9091E800815095FD06C06B
:1019D00095ED9A95F1F700008111F5CF8091E8001F
:1019E00085FF0DC050E040E063E070E087E493E0E5
:1019F0000E9428038091E8008E778093E800089584
:101A0000BC0184E00E94D60C0895BC0183E00E94D2
:101A1000D60C0895CF93DF93EC0181E08093E90029
:101A20008FEF9091E800815095FD06C095ED9A9555
:101A3000F1F700008111F5CF8091E80085FF14C017
:101A400050E040E068E070E0CE010E942803809101
:101A5000E8008E778093E80088E0FE01ADE4B3E013
:101A600001900D928A95E1F7DF91CF910895519AF7
:101A70003BB13D7F2BB122604FB7F89488E093E0F3
:101A8000FC015191CF0168E02BB9000000C057FF65
:101A90003BB9550F000000C000C000C03BB900C0FA
:101AA0006A9591F7F3E088339F0751F74FBF8FE5B1
:101AB00094E00197F1F700C000000895CF93DF9301
:101AC000C7EDD0E060E0CE010E9419312196C1152A
:101AD00084E0D807B9F7DF91CF9108950F931F9352
:101AE000CF93DF93142F022F8430F0F461111CC0C8
:101AF00094E0899FE0011124C953DF4F82E090E018
:101B0000442311F090E080E0632F8C0F9D1F0E9412
:101B1000193183E090E0112311F081E090E0602F13
:101B20008C0F9D1F0E941931DF91CF911F910F9152
:101B300008951F93CF93DF93122F8430E0F4643025
:101B4000D0F44530C0F4C42FD0E0CC0FDD1F9AE0B4
:101B5000699FC00DD11D112498E2899FC00DD11D30
:101B60001124632FCE0187960E941931612FCE0177
:101B700088960E941931DF91CF911F910895B0E0AE
:101B8000A0E0E5ECFDE00C9434306090150170901D
:101B9000160181E090E0909316018093150190EB7F
:101BA000A92E93E0B92E22EB822E23E0922E38EB61
:101BB000C32E33E0D32ED0E0C0E07601412C5C2E62
:101BC0001DC021E030E0C230D1053CF4F801EE0F39
:101BD000FF1FEE0DFF1D25913491402F642D852DA3
:101BE0000E94990D0F5F1F4F0530110551F78AE0D4
:101BF000E80EF11C439484E0481651F110E000E037
:101C0000E0CFF5012591349141E060E0852D0E94FF
:101C10006E0DF4012591349140E060E0852D0E9425
:101C20006E0D219684E0A80EB11C84E0880E911CF4
:101C300088E2C80ED11CC430D10509F0BECF709225
:101C4000160160921501CDB7DEB7E0E10C9450307B
:101C5000C230D105B4F221E030E041E060E0852DF2
:101C60000E946E0D21E030E0D7CFCF93C82F6FEFE9
:101C700081116CEE83E290E00E9419316FEFC11187
:101C800060E184E290E00E9419316FEFC1116BE2D4
:101C900085E290E00E941931CF91089580E00E9482
:101CA000350E60E086E290E00E9419310E94BF0D7F
:101CB0000E945E0D81E00E94350E0895FF920F9301
:101CC0001F93CF93DF93F42E843040F5611126C02B
:101CD00024E0829F8001112409531F4F82E090E08D
:101CE000442311F090E080E0800F911F0E94FB30B0
:101CF000C82FD0E0DC2FCC2783E090E0FF2011F04C
:101D000081E090E0800F911F0E94FB309E01282B04
:101D1000C901CDB7DEB7E5E00C945B3090E080E020
:101D2000F8CF0F931F93CF93DF93843030F5643057
:101D300020F5453010F5C42FD0E0CC0FDD1F2AE090
:101D4000629FC00DD11D112438E2839FC00DD11DAB
:101D50001124CE0187960E94FB30082F10E0102F2F
:101D60000027CE0188960E94FB309801282BC901DC
:101D7000DF91CF911F910F91089590E080E0F8CF0F
:101D8000462F672F20913A0330913B03232BF9F420
:101D9000703F39F4403FD9F4809138039091390372
:101DA00008958430A0F4743028F4453080F40E9403
:101DB000910E08957D3F39F4411109C041E060E082
:101DC0000E945E0E08957C3F11F44423C1F390E01D
:101DD00080E00895CF92DF92FF920F931F93CF93ED
:101DE000DF936C010091970380912C02082BC7E0D0
:101DF000D0E010E0FC2EC8010C2E02C0959587950E
:101E00000A94E2F780FD0CC02197A0F7F12C8F2DEA
:101E1000DF91CF911F910F91FF90DF90CF900895A8
:101E2000B6018C2F0E94C00E0E94480A019761F3F0
:101E3000EECFCF93DF93EC010E94EA0EBE010E9429
:101E4000C00E0E94480ADF91CF910895FC01838162
:101E50009481892B29F08081918189238F3F51F4CE
:101E600080E00895843FE1F717C0883EA8F0813FE5
:101E7000B9F712C0808191810E94190F92959F70CD
:101E8000963099F358F4925F9F70923048F7803FF4
:101E900019F040F7883E20F781E008959A5FF4CF6B
:101EA00083E290E00E94FB308C3E89F484E290E073
:101EB0000E94FB30803159F485E290E00E94FB30B3
:101EC00091E08B3209F090E0892F8170089580E0D5
:101ED000FCCFCF9384E090E00E94FB30C82F82E2D9
:101EE00090E00E94FB30982F8C2FCF9108951F9384
:101EF000CF93DF93EC01FC01E957FE4F84A96823DF
:101F0000B1F00E94B530182F0E94B5308F77782F2E
:101F100020E8720F08F47FEF612F809168030E9420
:101F20009C07462F282F672FCE010E94FC06DF91C9
:101F3000CF911F91089546E050E06CE170E085E696
:101F400093E00E940931109207030895E5E6F3E05B
:101F500081E2808380911B0190911C01A0911D0161
:101F600081839283A3838FE784838FEF85830E948D
:101F70009B0F0895B0E0A0E0E0ECFFE00C9435305A
:101F8000182F80911301811323C0909165039370E2
:101F90002091120130E081E09217130609F480E0ED
:101FA000817080931A0180916A03909119019817AA
:101FB00039F08093190140E060E080E00E94F9066A
:101FC0001E3160F4E12FF0E0EE55FE4C0C9425300C
:101FD00081E0E6CF80911A01811102C0C0E0FBC010
:101FE00040E060E080E00E94F906F8CFC09118015F
:101FF000CC0FCC0F04E00C0FF02E013110F090E16B
:10200000F92E6091660370916703809168030E94C6
:102010009C07E62ED72EC82ED0E0CF1528F0C1E0C1
:10202000003108F4D8C0DACFFE01E957FE4F84A989
:1020300090911901892331F02C2D4E2D6D2DCE015B
:102040000E94FC062196E9CFC0911801CC0FCC0F5D
:1020500004E00C0FF02E013110F080E1F82ED0904A
:102060006703E0906803D09166036D2F7D2D8E2D60
:102070000E949C07C62EB72EA82E609169036D0F93
:102080007D2D8E2D0E949C07E62ED72E982ED0E017
:10209000CF1528F6FE01E957FE4F94A9809119014A
:1020A000892359F0292D4E2D6D2D90FD03C02A2D29
:1020B0004C2D6B2DCE010E94FC062196E9CFC091DC
:1020C0001801CC0FCC0F04E00C0FE02E013110F002
:1020D000D0E1ED2ED0906703C09068032091690392
:1020E000B0E4FB2E4F2D429F412D1124F42ED0E061
:1020F000CE1508F094CFFE01E957FE4F84A99091C8
:1021000019018923B9F0FE01EE0FFF1FE957FE4FB9
:10211000858982958F70609166038F9D600D112473
:102120007D2D8C2D0E949C07462F282F672FCE01D6
:102130000E94FC062196DCCFC0911801CC0FCC0F79
:10214000D4E0DC0F0D2FD13108F000E1E090660300
:10215000F0906703D0906803609169036695669577
:10216000669580916103909162030E947F07E82F3A
:1021700086FDE0952E2F2F7086FD2F5FE695E69564
:10218000E695E670F0E0E059FE4F9181929F902D28
:10219000212D112492959F702295207F922B2081D2
:1021A000920F87FD9195892F87FD8195880F282FA4
:1021B0003D2D239F212D1124822FB7010E949C07C2
:1021C000D62EC72EB82EEC2EF12CE016E0F0C1E092
:1021D000D03108F003CF809118018F5F80931801F0
:1021E000C1110CC082E08093140180911A01811109
:1021F00005C0111103C083E080931401CDB7DEB791
:10220000EFE00C945130F701E957FE4F84A990910B
:102210001901892331F02B2D4D2D6C2DC7010E9402
:10222000FC064FEFE41AF40AD0CF80ED96E00E944E
:10223000A409C82FD0CF86EA96E0F9CFC091180143
:10224000CC0FCC0F74E0F72EFC0E7F2C80E18F15A5
:1022500010F460E1762E60916903669580916103C8
:10226000909162030E947F07682ED0E0CE01880F14
:10227000991FDC01A957BE4F6D01C71530F0C1E0B1
:10228000FFE0FF1508F0A7CFA9CEFE01E957FE4FEA
:1022900084A990911901892379F1F6018489282F65
:1022A0002057330B59018589A82FA052BB0B4D0134
:1022B000AA9C9001AB9C300D300D1124AA9FC00147
:1022C000AB9F900D900D1124820F931F0E944F071A
:1022D000082F609166037091670380916803E62C74
:1022E0009401A5010E9417070E949C07462F282FE2
:1022F000672FCE010E94FC06B2E0CB0ED11C2196C6
:10230000BCCF8DE996E093CFC0911801CC0FCC0FD4
:1023100044E0D42EDC0ECD2C20E12D1510F430E15C
:10232000C32E609169036695809161039091620369
:102330000E947F07B82ED0E0CE01880F991FDC01E4
:10234000A957BE4F7D01CC1530F0C1E03FE03D15EF
:1023500008F041CF43CEFE01E957FE4F84A990918A
:1023600019018923C1F0F70125892052330B4489D3
:102370004057550B60916603709167038091680325
:102380000B2D0E94FF060E949C07462F282F672FC7
:10239000CE010E94FC06F2E0EF0EF11C2196D3CF95
:1023A000C0911801CC0FCC0F04E00C0F80911A01E2
:1023B00081111CC06091690320E1620F08F46FEF86
:1023C00080916103909162030E947F076AE070E050
:1023D0000E94FD2F892B09F022CE0E943A078F70B0
:1023E0006091190190E00E94300819CE802F0131D0
:1023F00008F080E1D0E0E82EF12CCE15DF050CF0DE
:102400000ECE60911901CE010E9430082196F5CFC1
:10241000C0911A01C1111EC06091690320E1620FD1
:1024200008F46FEF80916103909162030E947F072F
:1024300065E070E00E94FD2F892B09F0CFCD0E944E
:10244000B53060E170E00E941130609119010E9486
:10245000770FC1CEC0911801CC0FCC0F04E00C0F48
:10246000802F013108F080E1D0E0E82EF12CCE156C
:10247000DF050CF0D4CD60911901CE010E94770FD9
:102480002196F5CF009118010F5F000F000F4091CA
:1024900061035091620360916303709164038091C2
:1024A000480290914902A0914A02B0914B028417D0
:1024B0009507A607B70708F0B2CD0E943A07F82E95
:1024C0000E943A0790E1891BF0F7890FC82FD0E0EE
:1024D000FE01E957FE4F8091190194A9892309F45F
:1024E0009ECD20E040E060E0F1FC13C00E943A077E
:1024F000F82E0E943A07782F76952FE7720F08F48E
:102500007FEF6F2D809168030E949C07462F282F34
:10251000672FCE010E94FC062091690330E1230F52
:1025200008F42FEF60E1822F90E00E947F07BC014A
:1025300084EF91E00E94FD2F8091610390916203EE
:10254000A0916303B0916403860F971FA11DB11D75
:102550008093480290934902A0934A02B0934B02A1
:102560005ECD40917C0250917D0260917E0270911F
:102570007F028091610390916203A0916303B09107
:10258000640384179507A607B70708F427CD809141
:102590001A0181111FC0C0911801CC0FCC0F04E0AB
:1025A0000C0FD02E013110F0B0E1DB2EEC2EF12C0F
:1025B00043E0C49FE0011124C45BDD4FED1408F437
:1025C00045C0ECE4F2E089E792E0003108F057C042
:1025D000C1E001CE40E060E080E00E94F906ACE49A
:1025E000EA2EA2E0FA2ED0E0C0E00FE70E943A0700
:1025F00081FF0FC0D7011C9211961C921197129661
:102600001C922196B3E0EB0EF11CC031D10571F79D
:10261000C2CF0E943A07B82E0E943A078695782FBB
:10262000700F08F47FEFCE01880F991F8C0F9D1F4C
:10263000FC01E45BFD4F6F016B2D809168030E94EC
:102640009C07D6016D937D938C93DBCFF701E957FF
:10265000FE4F84A990911901892331F02A81488184
:102660006981C7010E94FC062396EFEFEE1AFE0A6D
:10267000A5CF2381348145812193319341938E17D6
:102680009F07B9F70E943A0781FF1FC01092790295
:1026900010927A0210927B020E948907C090610317
:1026A000D0906203E0906303F0906403DC01CB01FF
:1026B0008C0D9D1DAE1DBF1D80937C0290937D02ED
:1026C000A0937E02B0937F0289CC0E943A07C82F64
:1026D0000E943A078695782F2FE7720F08F47FEF54
:1026E0006C2F809168030E949C076093790270931D
:1026F0007A0280937B02D0CF80911A01882329F03F
:1027000040E060E080E00E94F906009118010F5F50
:10271000000F000F409161035091620360916303C9
:10272000709164038091880290918902A0918A023D
:10273000B0918B0284179507A607B70708F06FCCF6
:102740006091660370916703809168030E949C0703
:10275000D62EC72EB82EE0E8EE2EE2E0FE2EC7E819
:10276000D1E0888190E0F701208121110AC020E0AA
:1027700040E060E00E94FC068C8120E040E060E0E8
:1027800009C02B2D4D2D6C2D0E94FC068C812B2D0C
:102790004D2D6C2D90E00E94FC06D70111962C91D6
:1027A00011972C93898190E021110AC020E040E02C
:1027B00060E00E94FC068B8120E040E060E009C000
:1027C0002B2D4D2D6C2D0E94FC068B812B2D4D2D1C
:1027D0006C2D90E00E94FC060E943A07837091E005
:1027E00009F090E0D70111969C93B2E0EB0EF11C3A
:1027F0002596E1E0CB39DE0709F0B3CF0E948907C7
:10280000C0906103D0906203E0906303F090640392
:10281000DC01CB018C0D9D1DAE1DBF1D8093880278
:1028200090938902A0938A02B0938B02F8CBB09068
:102830001801BB0CBB0C74E0A72EAB0C8A2CF0E18A
:10284000FA1510F460E1862E80911A01882361F058
:1028500040E060E080E00E94F906E1E9F2E084E116
:10286000DF011D928A95E9F780911801811115C049
:1028700080918D0290918E020E94720421E0893134
:10288000910508F420E020938C02499730F00E94D3
:102890008D0490938E0280938D02C12C912CD12CAB
:1028A00035E0632E45E5542E5AEA752E05C093E0B7
:1028B000991508F453C0D12C2D2D30E06C9CE0010B
:1028C0001124FE01E957FE4FE20FF31FE080EB14E5
:1028D00008F43CC0E81408F039C09394F12CF701D7
:1028E000E957FE4F84A990911901892309F42EC05C
:1028F000CF56DD4FC20FD31F0881302F252D321B3D
:1029000008F430E070916703272D200F08F42FEFB3
:1029100040916803822F880F820F8E5F282F249F9B
:10292000212D1124822F672D631B0E949C07462FA7
:10293000282F672FC7010E94FC0680918C028823F4
:1029400029F031E0031B08F400E00883D39445E04C
:10295000D412B2CFC39484E0C812A9CFC1E0AFE0D3
:10296000AA1508F038CC3ACB00916803B3E00B9F6E
:10297000E0011124D695C795D695C7955C2EA02E5B
:10298000B12C8FEF90E0B5010E941130762E80912E
:102990001A01882371F040E060E080E00E94F906AF
:1029A000E1E9F2E084E1DF011D928A95E9F71092F6
:1029B000900280918F028F5F80938F02F12CE12C27
:1029C000AC1ABD0A6701612CC7018F569D4F4C019F
:1029D00080919002862909F045C00E94B530853566
:1029E00095400CF03FC0F4010083F601E957FE4F1B
:1029F000E081EF3FD1F0D601AF56BD4F2C91F0E012
:102A0000521608F040C030E02C1B3D0B2C9FC0013B
:102A10002D9F900D3C9F900D1124B5010E94FD2F1C
:102A2000262F402FCF010E94FC066394F5E0CF0EC5
:102A3000D11C24E06212CCCF3FEFE31AF30A45E049
:102A4000E416F10409F0BECF80918F02781202C023
:102A500010928F02809190028F5F8D31F0F48093FD
:102A60009002BCCAF601EF56FD4F8081882309F41D
:102A7000BCCF801708F0B9CF90918F027912B5CFF3
:102A800081508083B2CF029FC0011124BE010E94F9
:102A9000FD2F462F20E060E0C5CF109290022BE979
:102AA00032E083E09FEF900FE1E9F2E0D90183305B
:102AB00021F44785041301C097874D91401730F0EA
:102AC000ED012197988314960C931497319642E068
:102AD000E639F40761F78150255031098111E4CFBF
:102AE0007DCA86E996E00E943309A3CB80E996E08F
:102AF000FACF80916B0321E0382F321B08F430E0CD
:102B0000832F67E776E00E946B0893CB67E776E058
:102B100080E0F9CF80916B0321E0482F421B08F43D
:102B200040E0842F6CE376E0EECF6CE376E0F0CF0C
:102B300080916B0321E0382F321B08F430E0832FA3
:102B40006AE076E0E0CF6AE076E0E2CF80916B0366
:102B500021E0482F421B08F440E0842F62EF75E02B
:102B6000D2CF62EF75E0D4CF80916B0321E0382F94
:102B7000321B08F430E0832F6CED75E0C4CF6CEDB0
:102B800075E0C6CFC0911801CC0FCC0F04E00C0F3C
:102B9000F02E013110F090E1F92ED0E0CF1508F0C1
:102BA0003ECAFE01EE0FFF1FEC0FFD1FEB55FD4F60
:102BB0006081718182810E949C07462F282F672F98
:102BC000CE010E94FC062196E9CF4F925F926F9250
:102BD0007F928F929F92AF92BF92CF92DF92EF92AD
:102BE000FF921F93CF93DF93C090FE02D090FF021D
:102BF000E0900003F09001038FB7F89440904303F6
:102C00005090440360904503709046038FBF53017A
:102C100042018C189D08AE08BF080E948104AB01D8
:102C2000BC014093FE025093FF0260930003709337
:102C300001038091020390910303A0910403B091DA
:102C40000503880D991DAA1DBB1D80930203909357
:102C50000303A0930403B09305031091D502E5ED9F
:102C6000F2E0C12FD0E02FEFC20ED21EE11CF11C0A
:102C7000C418D508E608F7081D1330C0C093D50264
:102C80002091060321113DC0813E9349A440B10526
:102C9000C0F590916503892F837019F0892F86956F
:102CA000869590911401913009F444C0992359F10B
:102CB000923009F442C0933009F44AC0DF91CF91B9
:102CC0001F91FF90EF90DF90CF90BF90AF909F90BB
:102CD0008F907F906F905F904F900895218D328DEF
:102CE0002901712C612CC414D504E604F70420F4E6
:102CF000C150DF5F3296C0CF280D391D328F218F32
:102D0000F8CF80E0CECF109218014093610350932A
:102D10006203609363037093640389E2E5EDF2E07C
:102D2000ABE6B3E001900D928A95E1F781E08093E4
:102D30001401C4CF0E94BA0FC1CF809313018091B8
:102D400065038370809312010E94370D83E0EFCFFB
:102D50008091070381110E949B0F40916103509164
:102D6000620360916303709164032FB7F8948091BC
:102D7000430390914403A0914503B09146032FBFB4
:102D8000841B950BA60BB70B4097A105B10508F462
:102D900095CF1092140192CFA4E0B0E0E2EDF6E1FD
:102DA0000C943B3019821A821B821C8287E5C82E44
:102DB00081E0D82E10E000E0EE24E394F12CF6013F
:102DC00081916F018F3F09F446C0F894E82FE29596
:102DD000EF70F0E021A18F70A70102C0440F551FD2
:102DE0008A95E2F7CA01922F982B91A392A1809520
:102DF000892382A3789400C0EBE5F1E0B12C31E0A7
:102E000021912F3F09F473C0A22FA295AF70B0E0BB
:102E100090968C9190E02F7002C0959587952A9599
:102E2000E2F780FD64C0832FB82A330F51E0E0360B
:102E3000F50731F7F601319780818F3F11F00E943D
:102E4000EE0980EA8A95F1F7E1E0F0E0EC0FFD1F72
:102E5000E00FF11FB0820F5F1F4F0430110509F022
:102E6000AECF44E050E0BE016F5F7F4F80E392E061
:102E70000E94CE30892BE9F189819A81AB81BC8196
:102E80008093300290933102A0933202B0933302C8
:102E900081E080932F020E948D0490932E028093F4
:102EA0002D0280912D0290912E020E9472040597AE
:102EB00020F144E050E060E372E084E492E00E949C
:102EC000CE30892BF9F08091300290913102A0919F
:102ED0003202B09133028093440290934502A09352
:102EE0004602B093470281E010922F0207C080E0B3
:102EF0009BCF80912F028111D4CF80E02496E9E00E
:102F00000C94573080E0F0CF8091280290912702F6
:102F1000892B8093CE0180912B02882319F10E9486
:102F20008D042091290230912A02821B930B88384C
:102F3000934110F00E94C90B8091CE0190912B0219
:102F4000892B8093CE0120E080ED91E0FC0131914E
:102F5000CF0131112F5FF1E0863D9F07B9F72111B5
:102F60000E94C90B48E050E06FE172E08EEC91E006
:102F70000E94CE30892BA9F088E0EEECF1E0AFE1C1
:102F8000B2E001900D928A95E1F7E0913E03F09155
:102F90003F03309731F00280F381E02D8EEC91E019
:102FA0000995089590E080E00E94C90490E080E0D7
:102FB0000E94B304109227020E94841708950E9471
:102FC000C10C809397030E94D217089580919703B4
:102FD000982F9670963021F488600E94DF1708952C
:102FE000877FFBCF21E030E001C0220F8A95EAF70E
:102FF00020958091970382230E94DF170895909176
:103000001E028095892380931E02282F277091F439
:10301000282F082E000C330B9217130659F09091AD
:10302000350292FF07C08595859585950E94F21718
:103030000E94DB0B0895CF93C0913502C2FB992704
:1030400090F9981791F080FBC2F9C0933502609116
:10305000340284E090E00E9419316C2F82E290E00B
:103060000E94193182E00E94FF17CF91089521E05C
:1030700030E001C0220F8A95EAF780919703822BF6
:103080000E94DF1708959091350292FF10C098E0DA
:10309000899F90011124622B60931E020E943718B1
:1030A0000E948D0490931D0280931C0208950E943B
:1030B0003718089580932C020E94D2170895109219
:1030C0002802E0EDF1E086E0DF011D928A95E9F744
:1030D0000E94D2170895AAE2B0E0E1E7F8E10C946B
:1030E000413089E593E02091F100DC012D93CD0181
:1030F000B3E081369B07B9F780915A03833009F416
:1031000072C0B8F4813009F449C0823009F4B3C008
:103110008091E80083FF96C28091590390915A03F1
:103120009A3008F08FC2E92FF0E0E054FE4C0C9486
:1031300025308A3009F48EC08B3009F471C0893093
:1031400039F780915903813219F780915D0390918D
:103150005E03009711F00297D9F68091E800877F0F
:103160008093E8008091E80082FF38C09091F300DE
:103170008091F200029731F48091F100813011F0DA
:10318000863021F48091F10080934C038091E80017
:103190008B778093E8000E945203BACF8091590345
:1031A000813A09F0B5CF8091E800877F8093E800ED
:1031B00080915D0390915E03892B61F468E08DE45A
:1031C00093E070E00E94FE038091E8008B7780938B
:1031D000E8009ECF60E090E080E0F3CF809157035D
:1031E0008111C0CF95CF80915903813A09F090CFDA
:1031F00080915D0390915E03892B09F089CF8091C6
:10320000E800877F8093E8008091E80080FFFCCF92
:10321000809117018093F1008091E8008E77B9CFFB
:1032200080915903813209F073CF80915D039091B1
:103230005E03892B09F06CCF8091E800877F809333
:10324000E8000E94520380915B03809317010E9463
:103250005F185ECF80915903813209F059CF809178
:10326000E800877F8093E8000E94520380915C030E
:1032700080934B034DCF80915903813A09F048CF99
:103280008091E800877F8093E8008091E80080FFCC
:10329000FCCF80914B03BECF803899F0823809F083
:1032A000D1C180915D038F70873008F0CBC18093CE
:1032B000E9008091EB0085FB882780F91092E900F6
:1032C00006C08091550390915603911182609091B0
:1032D000E800977F9093E8008093F1001092F1004E
:1032E0008091E8008E77AAC1882309F498C18230C2
:1032F00009F0A8C180915B0381119BC180915D039E
:103300008F702FEF280F263008F09CC18093E900C2
:103310002091EB0020FF8DC1933031F48091EB00C0
:1033200080628093EB0085C19091EB009061909357
:10333000EB0021E030E001C0220F8A95EAF72093EC
:10334000EA001092EA008091EB008860EACF8111D8
:1033500079C110915B031F778091E3008078812B06
:103360008093E3008091E800877F8093E8000E94CB
:1033700052038091E80080FFFCCF8091E3008068D9
:103380008093E30082E0111183E0809357035AC1D8
:103390008058823008F056C120915B0330915C0365
:1033A0002C3DE3E03E07A1F583E08A838AE289832E
:1033B0004FB7F894DE01139620E03EE051E2E32F90
:1033C000F0E050935700E49120FF03C0E295EF70C6
:1033D0003F5FEF708E2F90E0EA30C0F0C7968D937C
:1033E0009D932F5F243159F74FBF8091E800877F6D
:1033F0008093E8006AE270E0CE0101960E94FE032D
:103400008091E8008B778093E8001CC1C096E7CFDD
:1034100080915D0390915E03432F55274330510502
:1034200009F44AC078F54130510509F485C08BE5AF
:1034300090E0E8E0F4E04230510509F003C120914A
:10344000E800277F2093E80020915F03309160031C
:103450008217930708F49C0140E02115310509F01B
:1034600070C041116EC08091E80082FDC9CF80918B
:103470005703882329F2853019F28091E80083FFF1
:10348000F2CFBECF4132510509F447C04232510557
:1034900009F0D8C08330910508F0D4C0FC01EE0FCC
:1034A000FF1FE558FE4F0190F081E02D88589E4F98
:1034B000DC018C9190E01DC0332721303105E9F00B
:1034C0002115310579F022303105F9F0233031052D
:1034D00009F0B8C0E5E7F4E0E4918E2F90E0E5E76D
:1034E000F4E007C0EDEBF4E0E4918E2F90E0EDEB1B
:1034F000F4E0009709F4A6C0A2CFE5EAF4E0E49175
:103500008E2F90E0E5EAF4E0F4CFE3E9F4E0E49113
:103510008E2F90E0E3E9F4E0ECCF8330910508F0E2
:1035200091C0880F991FFC01EF57FE4F0190F08169
:10353000E02D89E090E083CF82E190E0E3E6F4E0E3
:103540007ECF80915703882309F45ACF853009F440
:1035500057CF8091E80083FD53CF8091E80082FD32
:1035600082CF8091E80080FF78CF9091F300809126
:10357000F2002115310519F08830910550F041E035
:10358000089709F040E08091E8008E778093E8008A
:1035900064CF44914093F100319621503109019656
:1035A000E8CF803809F04EC08091E800877F809393
:1035B000E800809158038093F10092CE811142C0BF
:1035C00010915B031230F0F58091E800877F8093C3
:1035D000E800109358030E945203112311F084E075
:1035E00005C08091E30087FDFACF81E08093570307
:1035F00042E061EC81E00E94710342E261EC84E010
:103600000E94710342E261EC82E00E94710342E297
:1036100060EC83E00E9471038091570313C0809196
:103620005B03813079F481E0933009F080E080938E
:1036300056031092E9008091E800877F8093E800AC
:103640000E9452038091E80083FF0AC08091E80045
:10365000877F8093E8008091EB0080628093EB008D
:10366000AA96E3E00C945D300E945F180E94D20C91
:103670002FEF84E39CE0215080409040E1F700C0B0
:10368000000088E19AE00FB6F894A8958093600056
:103690000FBE90936000FFCF882341F080959091FA
:1036A00027028923809327020E9484170895882384
:1036B00039F090912702982B909327020E9484174B
:1036C0000895882321F00E94D40B0E948417089546
:1036D000882339F090912802982B909328020E9419
:1036E00084170895882391F19CEF980F913A80F404
:1036F000E0EDF1E026ED31E09191891303C0DF01A7
:1037000011971C922E173F07B9F70E94841708954E
:1037100090E2980F983050F4877091E001C0990FB3
:103720008A95EAF7892F0E94D40BEFCF9BE5980F7B
:10373000933028F490E080E00E94C9040895885AEC
:10374000873120F490E080E00E94B3040895CF9385
:10375000C82F8823B1F08CEF8C0F813A00F5E0ED93
:10376000F1E086ED91E0DF012D91C21761F08A173B
:103770009B07D1F76C2F8EEC91E00E9499040E9478
:103780008417CF9108952191C21303C0DF011197CF
:103790001C928E179F07B9F70E948417EBCF80E227
:1037A0008C0F883068F4C77021E030E001C0220F30
:1037B000CA95EAF780912802822B80932802DFCFF6
:1037C000EBE5EC0FE33040F4F0E0EA5DFE4F808182
:1037D00090E00E94C904D5CFC85AC73190F6EC2FAB
:1037E000F0E0EE0FFF1FE75DFE4F808191810E94A8
:1037F000B304C7CF1F93CF93DF93182FD0E0C0E05F
:10380000893311F4C0E5D0E0812F0E94A71B2097D7
:1038100039F4812F0E94721BDF91CF911F9108957F
:103820008FE99FE00197F1F700C000002197EFCFEB
:103830000F931F93CF93DF93C62FD42F022FFC013A
:1038400082818823A9F0609396030E948D0490934F
:10385000950380939403C77081E001C0880FCA95D7
:10386000EAF70E94681BDF91CF911F910F91089595
:1038700080919603681332C08091940390919503D0
:103880000E947204883C910548F510E21D0FCD1787
:10389000B9F080E28C0F883040F4C77081E001C03D
:1038A000880FCA95EAF70E94611B183048F481E03E
:1038B0009D2F977001C0880F9A95EAF70E94681BA8
:1038C000802F0E94FA1B183070F6D77081E001C07B
:1038D000880FDA95EAF70E94611BC5CFC77081E0B7
:1038E00001C0880FCA95EAF7F6CFB0E0A0E0EBE799
:1038F000FCE10C943A30EC018AE0A82E28812223C6
:1039000009F48FC02130C9F599818A81913021F461
:1039100022960E94FA1B05C0923029F422960E943A
:10392000A71B2196EBCF933021F422960E94721BA5
:10393000F8CF943011F02196F4CF229630E020E0B9
:10394000AE014F5F5F4F8053990B8A30910550F065
:103950002150310930F38FE99FE00197F1F700C062
:103960000000F6CFA29EB001A39E700D11249C0111
:10397000260F371F8981EA01E3CFE22FF0E0EF50F5
:10398000FB4FB490822F86958695869590E0FC013A
:10399000EF51FB4FE4902770F12C022E02C0F594FA
:1039A000E7940A94E2F731E0E322FF24FC01EF52AE
:1039B000FB4FC490D12C022E02C0D594C7940A9418
:1039C000E2F731E0C322DD24FC01EF53FB4F049109
:1039D00010E002C0159507952A95E2F701701127AE
:1039E000E114F10419F081EE0E94A71BC114D10467
:1039F00019F086EE0E94A71B8B2D0E94FA1BC114A2
:103A0000D10419F086EE0E94721BE114F10419F042
:103A100081EE0E94721B0115110509F482CF8CE220
:103A200078CFCDB7DEB7EAE00C94563090E080E076
:103A30000E940331883E9E4F19F40E94500F089552
:103A400080E0089568EE7EEF90E080E00E943731DC
:103A500060E082E090E00E94193160E083E090E055
:103A60000E94193110922C0260E084E090E00E94E4
:103A7000193164E082E290E00E94193160E085E053
:103A800090E00E94193160E086E090E00E941931D8
:103A90006FEF87E090E00E94193140E050E0BA01FA
:103AA00088E090E00E942B3160E08DE090E00E9481
:103AB000193140E050E0BA0188E190E00E942B31DA
:103AC00060E087E190E00E94193140E050E0BA01E7
:103AD0008CE190E00E942B3170E060E080E290E0A9
:103AE0000E94373140E050E0BA0188E190E00E9446
:103AF0002B3180E00E94350E0E944E0E40E050E0D7
:103B0000BA018FE090E00E942B3140E050E0BA0112
:103B100083E190E00E942B310895A5E0B0E0E3E955
:103B2000FDE10C9438306C01FC0183819481892B78
:103B300031F08081918189238F3F09F08EC52596D0
:103B4000ECE00C9454300E94EA0E182F682F898103
:103B50009A810E945D0C69817A81812F0E94C00E3A
:103B60008C01F6018281882309F46CC598012251E9
:103B70003F452031310508F03EC58FEF93E00E94AC
:103B8000FB308111A8C05EEEF52EF00E07ED10E0BF
:103B9000F11036C019821A821B821C8299249A94D1
:103BA00078012FEFE21AF20AC8010E94FB308983E4
:103BB0001A82882309F48FC0813009F081C058012E
:103BC00032E0A30EB11CC7010E94FB30E82E8A83AD
:103BD000882309F480C0C5010E94FB30F82E8FEFC6
:103BE0008E0D8330D8F4580143E0A40EB11CFB8243
:103BF000FF2021F0CE0101960E94751C8501D0CFD7
:103C00000115F4E01F0709F466C0C8010E94FB30EB
:103C1000811101C0FA940F5F1F4FBACF8BEF8E0D49
:103C2000833040F5C8010396FB825C01FF2031F32D
:103C3000580154E0A50EB11C0E94FB308C838823F0
:103C4000E9F20B811C8101308FEF180710F0102F63
:103C5000002796E0E91651F0E7E0EE1619F0C801EA
:103C60000E946226C8010E942A26C8CFC8010E946D
:103C70006226C4CFF4E0EF12C1CF580124E0A20EB7
:103C8000B11CC80103960E94FB30FF2021F188235C
:103C900011F18150990B989E9001999E300D11243D
:103CA0004F2D4150550BCA01820F931F019708F405
:103CB000A5CFEFE9FFE03197F1F700C00000F6CFA4
:103CC000CE0101960E94751C570198CF81E00E9499
:103CD00037180E94E61780911E02877009F42FCFD3
:103CE000F6018281882309F42ACF8091350282FF70
:103CF00026CF82E00E94FF1722CF81E00E94F217B8
:103D0000E8CF82E0E4CF053FECE51E0709F461C08F
:103D100008F45BC0063F2CE5120709F45EC0882357
:103D200009F4ACC41092960303303DE5130708F084
:103D30005BC00A3F4CE5140730F4C80182509C4533
:103D4000449708F05CC00E94690F909335028093FD
:103D500034020231ECE51E0709F45CC108F0A8C08A
:103D600009302CE5120709F42FC108F077C005309F
:103D70004CE5140709F41CC108F05EC003308CE563
:103D8000180709F40DC108F00FC180913402816059
:103D90000230ECE51E0709F488C0609134021091EE
:103DA000350284E090E00E941931612F82E290E0B8
:103DB0000E9419310E945F188ECF27E245EE65EE12
:103DC0003DC426E241EE60EE39C427E245EE64EEE2
:103DD00035C426E241EE62EE31C427E245EE66EEDE
:103DE0002DC428E241E0EBCF053A5DE5150709F463
:103DF000AACFE0F401369DE5190709F4A4CF0631F6
:103E0000ECE51E0709F0A9C4809128028A7A91E0A6
:103E100009F490E09093D60169E2811165E38EEC9C
:103E200091E00E9499040E94841755CFC8018D5AD1
:103E30009D45039720F787CF809134028062073039
:103E4000FCE51F0791F180913402806108302CE578
:103E5000120758F180913402806427C00D303CE590
:103E6000130709F4BFC068F4809134028E7F0B30D1
:103E70005CE51507D1F008F4ADC0809134028D7F68
:103E800014C00F309CE5190709F4BCC008F4AEC09B
:103E90000031FCE51F0709F4B9C0809134028F7B23
:103EA00001312CE5120709F078CF8093340275CFE9
:103EB0000F3F3CE5130709F4B7C0A8F50A3F5CE5DE
:103EC000150709F479C0C0F404319CE5190709F419
:103ED000B9C008F4A5C00531FCE51F0709F05DCFA6
:103EE0008091340282FB992790F921E0922790FB80
:103EF00082F990FB83F9D9CF0C3F2CE5120709F426
:103F000079C008F45DC00D3F4CE5140709F476C094
:103F10008091350283600E3F5CE5150709F03DCFC7
:103F2000809335023ACF01368DE5180709F495C024
:103F300090F40130EDE51E0709F48DC008F478C057
:103F400060E002302DE5120709F027CF8EE090E007
:103F50000E94193122CF0D3A3DE51307E9F060F4D4
:103F600090913402892F8E7F90FF8160053A5DE544
:103F7000150709F49ACF11CF0E3A8DE5180771F1A4
:103F80000F3A9DE5190709F008CF90913502892F66
:103F9000877F93FF8860C4CF809135028860C0CF4F
:103FA00080913402826081CF8091340284607DCF21
:103FB00080913402886079CF809135028160B0CFE2
:103FC000809135028260ACCF0E945F1880913402EC
:103FD00080686BCF809134028C6067CF809135020E
:103FE000877F9ECF809134028B7F5FCF8091340298
:103FF000877F5BCF809135028E7F92CF8091350293
:104000008D7F8ECF809134028F7E4FCF809134028E
:104010008F7D4BCF0E945F18809134028F7745CF00
:1040200080913402837F41CF809135028C7F78CF9D
:1040300080913502982F909591708E7F892B90FBFF
:1040400081F96ECF0E945F1890913402892F97FBFF
:1040500087F980582ACF61E079CF90913402892F77
:104060008F7E94FF806121CF8091D60181110FC096
:1040700089E2E0EDF1E026ED31E09191891303C092
:10408000DF0111971C922E173F07B9F7CCCE85E3BD
:10409000F0CF45EC55E060ED75E00E94EC041BCEDE
:1040A00040ED55E065EC75E0F8CF46E955E061EA92
:1040B00075E0F3CF41EA55E066E975E0EECF4AE7F7
:1040C00055E068E875E0E9CF48E855E06AE775E053
:1040D000E4CF4CE655E06EE575E0DFCF42E355E016
:1040E00060E475E0DACF40E455E062E375E0D5CFF7
:1040F00061E081E00E94AC05EECD61E088E0FACF9E
:104100000E945F180E94D20CFFEF24E33CE0F150C4
:1041100020403040E1F700C000000E94610480911F
:10412000350282FB882780F991E089270E941B18BD
:10413000F601828100811181882309F445C0C801FC
:104140000E94EA0EF82E682FC8010E945D0CB8018B
:104150008F2D0E94C00E0E94480A8C01882EF60105
:10416000E280B580B2943FE0B32280911E02877056
:10417000C1F0AE2CEE20B1F0812F807F803421F091
:1041800080E2800F883068F08091350282FF09C09C
:1041900082E00E94FF1780911E028770AA24A394D8
:1041A0008111A12C912E92942FE09222FBE0F9151F
:1041B00008F476C0E92DF0E0E653FE4C0C9425306F
:1041C00081E0B4CF80E0B2CFC8010E94130CF82E7A
:1041D000BECF212F2F70F22E107F19F0F29490EFA6
:1041E000F922EE20B9F0FF2069F080E2800F8830DC
:1041F00010F0811009C080912802F82AF09228025C
:104200000E948417802F4AC080912702F82AF092DA
:104210002702F6CF802F0E94721BFF2009F440C0B6
:10422000005E083010F0811004C08F2D0E94D40B66
:1042300006C0F09480912702F822F09227020E9493
:1042400084172EC0312F3F70F32E107F103219F0DB
:10425000F29480EFF822882089F041E0841609F476
:1042600093C0EE2009F49CC0BB2009F469C0F6019C
:10427000858180FFC7CF8F70858362C080913502B2
:1042800082FD37C0EE2079F1FF2039F080912802BD
:10429000F82AF09228020E94841780E00E94A71B4F
:1042A000292D2850330B2430310520F40E94DF04DF
:1042B0000E94790CAA2009F442CC80911E0280FD54
:1042C0003ECCF60112828595859585950E9437181A
:1042D000C6010E948D1D80911E028595859585954C
:1042E0000E94F2172CCC80E00E94721BFF20C1F2CA
:1042F0009CCFEE2049F1B11004C080912B028F2990
:1043000020C051E0B51210C082FFCACF80912B02AD
:10431000F82AF81629F20E948D0490932A028093BD
:104320002902F0922B02BCCF85E0B812E6CF0E94A2
:10433000C90B9091D7018F2D892B89138093D701B9
:104340008F2D0E94681BACCFB11003C00E94C90B17
:1043500012C091E0B91213C0809128028F2109F494
:104360009FCF0E94C90B9091D7018F2D80958923F3
:1043700089138093D7018F2D0E94611B91CFE5E0B7
:10438000BE1609F48DCFE2CFEE2029F0F2E0FB1546
:1043900008F486CFD5CF21E02B1508F481CFEBCFE1
:1043A000BB2049F3F9E38F1209C02FEF37EE43E04A
:1043B000215030404040E1F700C00000802F0E94B3
:1043C000721B6ECF812F86958695837061F0813048
:1043D00009F066CFC8019370E11002C090E080E060
:1043E0000E94B3045DCFC8019370E11002C090E059
:1043F00080E00E94C90454CF812F837089F5E110B9
:104400004FCF402F429546954770440F440F802F61
:104410008F70042E01C0880F0A94EAF7202F2071B4
:1044200004FF07C02FE030E001C0220F4A95EAF7F1
:104430002095169516951370123069F050F430914E
:104440002C02113029F0822B83230E945A1828CF86
:10445000832B822BFACF282B80912C028227F5CF39
:104460008695EE2011F0812F8170882309F418CFF2
:10447000402F429546954770440F440F802F8F7010
:10448000042E01C0880F0A94EAF7202F207104FF40
:1044900007C02FE030E001C0220F4A95EAF72095CF
:1044A000169516951370123069F050F430919703F9
:1044B000113029F0822B83230E94DF17F1CE832B4A
:1044C000822BFACF282B809197038227F5CF1F707C
:1044D000EE2029F0812F0E943718802F32CF802FB5
:1044E0000E94611B812F0E94F217DACE802F52EFBB
:1044F0008516B1F1581570F090EF8916D1F0E1EF03
:104500008E1691F0EE2009F466C0B1107BCE812F9B
:104510008F712AC0F3EF8F1651F124EF8212F2CF80
:104520008091350282FD2FC0812F8F71EE20D9F24C
:104530001BC0EE2081F031E03B1508F4B1CE1F71B5
:1045400081E090E0012E01C0880F0A94EAF7909173
:1045500097038927B1CF42E04B1508F4A1CEEFCFE6
:10456000812F8F71E110BFCF0E94371899CE80E064
:10457000EE2009F4A1CF1F7181E0012E01C0880F48
:104580000A94EAF799CFEE20C9F080911E02877055
:10459000843041F40E94DB0B812F8F710E94F2174F
:1045A000A12C7ECE54E05B15D8F31F71812F0E94A1
:1045B000371863E0812F0E944318F2CF84E08B15F7
:1045C00030F40E94DB0B64E0812F8F71F4CF81E027
:1045D0000E94FF17E5CFBB2059F0893309F0EECEDA
:1045E0009FEFE7EEF3E09150E040F040E1F7E4CEDA
:1045F000812F8F7178CF0031FFE51F0709F466CB5B
:1046000001312FE5120709F47CCB033F2CE512079B
:1046100009F4D7CB08F077CB083D4CE5140709F433
:10462000CCCB093D5CE5150709F4DBCB073D9CE5E8
:10463000190709F074CB26E241EE61EEC6010E9433
:10464000181C49CB00313FE5130709F456CB013163
:104650004FE51407D1F682E051CB85E0DE011196DB
:1046600001900D928A95E1F7F601228189819A8164
:10467000211169CA0E94130C182F6DCA0631FCE57E
:104680001F0709F4F1CC8091280282720A3C2CE5C4
:10469000120709F41ECDB0F5053C4CE5140709F4EA
:1046A00004CDD0F4033C9CE5190709F4F2CC08F0E2
:1046B000F7CC023CFCE51F0709F03ACD8091650379
:1046C00091E089278093650310921401809107037C
:1046D000816080930703FFCA073C2CE5120709F4A9
:1046E000EECC08F4E7CC083C4CE5140709F4ECCC1C
:1046F000093C5CE5150709F01BCD4EE555E06CE67D
:1047000075E0CBCC0F3C9CE5190709F4F6CCA0F47E
:104710000C3CFCE51F0709F4E6CC08F4DFCC0D3CAB
:104720003CE5130709F4E4CC61E084E00E3C4CE581
:10473000140709F4DFCCFCCC063D5CE5150740F41A
:10474000013D8CE5180708F0C6CA61E089E0D2CCCB
:104750000D35100709F4BFCAEBCC0A35EDE51E078D
:1047600009F42ECD68F401152CE5120709F4C8CC24
:104770000E3D1C4509F0DCCC0E94221D0E94341B1A
:104780000C354DE5140709F4CACC08F41BCD073AE3
:104790001D45A1F3CDCC1F93CF93DF938091E90109
:1047A000807F09F049C08091E601882309F444C064
:1047B00080911B02D091EA016091E4017091E501C2
:1047C000A091E701B091E801C62FC72316E0D817E2
:1047D00099F190E0109711F0CF3F19F4019687708E
:1047E000F6CF189F9001199F300D1124F901E55162
:1047F000FE4F41814713F2CF40814613EFCF4281F4
:104800004111ECCF438154814A1B5B0B483C51055D
:1048100028F78091E9018F7080618093E901F901A7
:10482000E051FE4F80818F708061808384EE91E043
:104830000E948D1D0E94E20BDF91CF911F91089580
:10484000A1E1B0E0E6E2F4E20C943A308C0185E0BC
:10485000F801DE011D9601900D928A95E1F7F801AD
:10486000E28084EEA82E81E0B82E6091E70170917D
:10487000E8016115710509F426C19091E4014091A8
:10488000E501892F84238F3F09F41DC120813181E7
:10489000C380D480F090E601F601E61BF70BFF2001
:1048A00009F4DCC08091E901582F507FE83CF10504
:1048B00008F09FC051116BC0FE2C431314C092131B
:1048C00012C0E11010C08F7080618093E901C501B2
:1048D0000E948D1D8091E901F80185838F2D6196DD
:1048E000EAE00C945630C114D10429F0822F8323BE
:1048F0008F3F09F003C180E0F82FF170DF2E80FFB9
:104900003CC080911B024091EA0156E0841315C01F
:104910002D873E878D859E850E94190F292F229510
:104920002F702230F0F0243018F59F70F1F0F8016C
:104930009581907FD1F4D12C1EC090E0589FF0015A
:10494000599FF00D1124E551FE4F6181361306C0C9
:104950006081261303C06281E6120FC00196877042
:10496000D5CF9F7011F0882331F3805E883018F323
:10497000C8010E948D1DFD2CB1CFEE2009F4AECFF1
:104980008091E90181608093E901F12CA7CF431365
:1049900006C0921304C0F801EE2009F479C0C801E2
:1049A0000E94260F882309F1EE20F9F08091E90199
:1049B000803270F02091E4013091E50138872F8337
:1049C0001986DB86CA868C87CE0107960E948D1DCC
:1049D00086E0F801A4EEB1E001900D928A95E1F72E
:1049E0000E94CB23FF24F39479CFC8010E948D1D30
:1049F000F9CF51110AC084EE91E00E948D1D86E02E
:104A0000F50111928A95E9F7C0CF43130FC09213B5
:104A10000DC0E1100BC0F8018583C8010E948D1DF7
:104A200086E0F50111928A95E9F758CFC8010E94F6
:104A3000260F8823D1F2EE20C1F28091E901803265
:104A400038F22091E4013091E5013A8329831B82F9
:104A5000DD82CC828E83CE010196B8CFE83CF10591
:104A6000F8F6FE2CEE2009F243131FC092131DC06E
:104A70008091E90180FD10C0982F907F69F0F801C6
:104A80008583903F31F0982F907F905F8F70892BB6
:104A90008583C8010E948D1D86E0F801A4EEB1E077
:104AA00001900D928A95E1F719CFC8010E94260F57
:104AB00081118ECF8091E90181608093E901C80165
:104AC0000E948D1D0BCFEE2009F48FCFC8010E94EC
:104AD000260FF82E882309F488CF86E0F801A4EE8B
:104AE000B1E001900D928A95E1F78091E4019091F7
:104AF000E5010E94190F0E94CB23F0CE81E08E25A4
:104B0000FBCEA7E1B0E0E7E8F5E20C9441304B8B37
:104B10005C8B6D8B7E8B8F8B6111109227021A8AB2
:104B2000198A85E0FE017396DE011D9601900D92B3
:104B30008A95E1F78091350282FF1CC00E948D04A6
:104B400020911C0230911D02821B930B88389341E7
:104B500020F080911E0282FF79C00E948D04209176
:104B6000290230912A02821B930B8838934110F05E
:104B70000E94C90B86E0FE013D96DE01179601906A
:104B80000D928A95E1F7CE0107960E942024882392
:104B900059F016E080911B029091EA01891343C0FD
:104BA0006796E3E00C945D3086E0FE013796DE0107
:104BB000119601900D928A95E1F78A859B85892B44
:104BC00041F38F81988589238F3F19F32091EA0162
:104BD00030E0C90101968770992740911B02481760
:104BE000190671F40E945F181092EA0110921B02DC
:104BF00086E0E4EEF1E0DF011D928A95E9F7C9CF86
:104C000096E0929FD001939FB00D1124A551BE4F05
:104C1000FE01319601900D929A95E1F78093EA0199
:104C20000E94E20BB6CF819FC001112485519E4F97
:104C30000E942024882309F4B3CF80911B0290E0C6
:104C400001968770992780931B02A4CF82E00E946F
:104C5000FF1783CFA5E0B0E0E0E3F6E20C9440302C
:104C60008C019093390380933803011580E2180773
:104C7000C0F4802F0E94721BC8010E94900C980102
:104C8000205E31092830310518F00115110531F485
:104C90000E94611B2596E4E00C945C300E944C1B42
:104CA000F9CF80EF89838A831B820E948D04816003
:104CB000782F9D838C8349815A816B818D810E94DD
:104CC0008125E8CFA5E0B0E0E8E6F6E20C944030BC
:104CD0008C019093390380933803011580E2180703
:104CE000C0F4C8010E94900C9801205E3109283060
:104CF000310518F00115110549F40E94681B802F39
:104D00000E94A71B2596E4E00C945C300E94571B80
:104D1000F6CF80EF89838A8381E08B830E948D04A4
:104D20008160782F9D838C8349815A816B818D812D
:104D30000E948125E7CF1F920F920FB60F92112488
:104D40002F933F934F935F936F937F938F939F9393
:104D5000AF93BF93CF93DF93EF93FF93D091E9008D
:104D6000DF708091EC00C82FC17080FDC0E8109208
:104D7000E9008091F000877F8093F00078940E9492
:104D80006B181092E9008091F00088608093F00029
:104D9000CD2BCF70C093E900FF91EF91DF91CF91C0
:104DA000BF91AF919F918F917F916F915F914F9143
:104DB0003F912F910F900FBE0F901F9018951F924B
:104DC0000F920FB60F9211242F933F934F935F933F
:104DD0006F937F938F939F93AF93BF93EF93FF93C3
:104DE0008091E10082FF09C08091E20082FF05C04E
:104DF0008091E1008B7F8093E1008091DA0080FF59
:104E000024C08091D80080FF20C08091DA008E7F7E
:104E10008093DA008091D90080FF9DC080E189BD38
:104E200082E189BD09B400FEFDCF81E08093570384
:104E300080914A03811109C00E94D8020E94A303F5
:104E40008091E20084608093E2008091E10080FF25
:104E500017C08091E20080FF13C08091E2008E7F36
:104E60008093E2008091E20080618093E200809173
:104E7000D80080628093D80019BC85E080935703E6
:104E80008091E10084FF2BC08091E20084FF27C065
:104E900080E189BD82E189BD89B5982F917080FF3D
:104EA000FBCF8091D8008F7D8093D8008091E10066
:104EB0008F7E8093E1008091E2008F7E8093E200FC
:104EC0008091E20081608093E20080915803882302
:104ED00009F447C084E08093570380915703809181
:104EE000E10083FF27C08091E20083FF23C080910F
:104EF000E100877F8093E10082E080935703109266
:104F000058038091E1008E7F8093E1008091E20060
:104F10008E7F8093E2008091E20080618093E200C6
:104F200042E060E080E00E9471038091F0008860C0
:104F30008093F000FF91EF91BF91AF919F918F917E
:104F40007F916F915F914F913F912F910F900FBE85
:104F50000F901F90189519BC1092570310924A0396
:104F600074CF8091E30087FD93E090935703B5CF12
:104F700078941F921FB61F9211248F939F93AF9323
:104F8000BF938091430390914403A0914503B09156
:104F900046030196A11DB11D8093430390934403E2
:104FA000A0934503B0934603BF91AF919F918F911A
:104FB0001F901FBE1F9018951F921FB61F9211249D
:104FC0008F939F93AF93BF9380914203811113C03E
:104FD0008091430390914403A0914503B09146030F
:104FE0004196A11DB11D8093430390934403A09368
:104FF0004503B0934603BF91AF919F918F911F904E
:105000001FBE1F901895CDB7DEB7C155D1090FB699
:10501000F894DEBF0FBECDBF85B7806885BF85B76A
:10502000806885BF84B7877F84BF0FB6F894A89542
:1050300080916000886180936000109260000FBED4
:1050400080E890E00FB6F89480936100909361003F
:105050000FBE8CEE99E09093CD018093CC01219A04
:10506000239A269A0E94D8020E94A3038091E2000C
:1050700084608093E2007894809157038823A1F0A4
:105080001091E9001F709091EC00892F817090FDC4
:1050900080E8182B1092E9008091E80083FD0E94BF
:1050A0006B181F701093E90082E084BD93E095BDFA
:1050B0009AEF97BD80936E000E94500F811102C03D
:1050C0000E944E0E84EF0E94EE0985EF0E94EE09C9
:1050D00086EF0E94EE0987EF0E94EE090BE511E0D2
:1050E000D8018D918D018F3F11F00E94EE09B1E042
:1050F00000361B07A9F784E0E4E4F2E0DF01282F83
:105100001D922A95E9F7E0E3F2E0DF011D928A950E
:10511000E9F7299A2B9A2E9ABFEFE7EEF3E0B15008
:10512000E040F040E1F700C0000029982B982E984D
:105130002FEF37EE43E0215030404040E1F700C010
:105140000000299A2B9A2E9A5FEF87EE93E0515038
:1051500080409040E1F700C0000029982B982E98DD
:105160000E94161D811102C00E94221D82E090E063
:105170000E94FB30809338020E94690F90933502A1
:10518000809334020E94CC16AFE3BCE91197F1F78B
:1051900000C000000E94CC168091470280FF08C02A
:1051A0006FEF7FEF90E080E00E9437310E94610452
:1051B00083E090E00E94FB300E945A188091970390
:1051C0000E94C10C10926B038FEF9FEF90938503A9
:1051D000809384039093870380938603909389033D
:1051E0008093880390938B0380938A0390938D031D
:1051F00080938C0390938F0380938E0390939103FD
:105200008093900390939303809392031092D5021E
:105210009093EF028093EE029093F1028093F0025C
:105220009093F3028093F2029093F5028093F4023C
:105230009093F7028093F6029093F9028093F8021C
:105240009093FB028093FA029093FD028093FC02FC
:105250000E94161D811104C00E94221D0E94A60FEB
:1052600046E050E06CE170E085E693E00E94EB30B0
:1052700010920703809165038C7F11F40E94A60FA2
:1052800081E080933F0222982A9A54985C9AEFE832
:10529000F1E03197F1F700C0000020913F0240E4B7
:1052A00052E0FA018E2F841B821708F4DBC084E0E1
:1052B00091E090933F0380933E0384E492E0F4E016
:1052C000F80F6296FFAF629780915703853099F48B
:1052D00000E4FF24F39483E0E82E10E1809157036B
:1052E000853009F4CBC00E945F180E94DF040E9441
:1052F000790C109206030E94CC1619E3612E12E07D
:10530000712E44E452E02A965FAF4EAF2A97DA013D
:10531000F30191918D9152E0ED33F50709F400C14D
:105320009817B9F3F12C512C412C2A96AEADBFAD94
:105330002A97BD902A96BFAFAEAF2A97F30181910D
:105340003F018B1509F4F2C18B252D968FAF2D9758
:105350006201E12CAA24A3942D968FAD2D978A216A
:1053600009F4D9C12B2C2A202396EFAE239724963B
:10537000FFAE249781E0211001C080E025968FAF19
:1053800025970E948D048160782F27969FAF8EAF5E
:10539000279723964FAD239724965FAD24972596A4
:1053A0006FAD259727968FAD27970E948125109284
:1053B00002031092030310920403109205032220AB
:1053C00039F0F601E957FE4F80818F3F09F030C177
:1053D000312C032D10E08091D502800F912F911D6B
:1053E00009976CF1F8E08F2E912C801A910AB80180
:1053F0006A527D4FA40186ED92E00E94DB30B80135
:1054000062527D4FA4018EED92E00E94DB30A40138
:10541000440F551FB801660F771F62517D4F8EEE06
:1054200092E00E94DB30B8016A517D4FA40186EE04
:1054300092E00E94DB3088E083198093D50280914E
:10544000D50290E02896EFAD2897AE2FB0E09D01F1
:10545000220F331F25563E4FAA0FBB1FBD016456B6
:105460007E4F03C183B182FB882780F94C9904C029
:1054700090E0892B819316CF92E0FBCF8091570368
:10548000843009F43BC00E94E51580E00E94790C4D
:105490008091060381110DC00E94BA0F1092130172
:1054A000809165038370809312010E94370DE09212
:1054B0001401F09206031092420328E130E00FB687
:1054C000F894A895209360000FBE0093600083B706
:1054D000817F846083BF83B7816083BF7894889520
:1054E00083B78E7F83BF0FB6F894A8958091600034
:1054F000886180936000109260000FBE8091560317
:10550000882309F4EBCE0E94CC16E4E4F2E081910A
:10551000811154C562963FAD62973E13F8CFDECE3F
:10552000981300CF0E948D048C01809136029091D7
:10553000370208171907C1F08FEF8DAF8EAF1FAE7E
:105540000E948D048160782F22969FAF8EAF2297A4
:105550004DAD5EAD6FAD22968FAD22970E94812535
:1055600010933702009336020E94E515B12CA12C4E
:1055700074E0C72ED12CEDEF9E2E88248394FCEF8F
:105580006F2E80913F02B81608F411C1A1100E943D
:1055900081040E94DF04182F80914102181739F00E
:1055A000109341020E948104812F0E94790C809106
:1055B0005703843009F088CE83E08093E90080911E
:1055C000E80082FF81CE8091E80090E085FF0CC06A
:1055D0000E94F70260E2E62EF12C8E010F5F1F4F52
:1055E000882309F48AC191E08091E8008B77809349
:1055F000E800992309F468CE00913A0310913B0327
:1056000089810115110509F486C18E3F09F040C258
:105610008A81833020F08550833008F039C2EA81D6
:10562000EE3008F035C2F0E0EA52FE4C0C94253022
:1056300028968FAF289733243394CBCE90E0FC018B
:10564000EB52FD4FD9015C915183DB015C91518795
:105650002896BFAD2897B18B880F991FFC01EB529C
:10566000FD4F128E118E91E0842F41E0480F93156B
:1056700028F38093D502222009F44DC08091650360
:105680008C7F8C3309F047C0F601E957FE4F8081CB
:105690008F3F09F440C0212C912C812C90E09C017B
:1056A000220F331FA90145565E4F2F965FAF4EAFB5
:1056B0002F97D901A456BE4F6196BFAFAEAF619789
:1056C000F601EF56FD4F2C96FFAFEEAF2C978401FD
:1056D000312CF801E957FE4FE081EF3F71F0F210F5
:1056E0002FC0E3102DC02C96AEADBFAD2C972C91E2
:1056F00030E2230F08F42FEF2C9333940F5F1F4FEA
:1057000045E03412E6CF239455E0850E911C84E1E8
:1057100088169104E1F6E394AA0C9FEFC91AD90AFE
:10572000A5E0EA1219CEF3013197B082F394B5E007
:105730004B0E511CE4E0FE12F8CD0E94810414CF00
:10574000F0E0DF01AA0FBB1FCD0185569E4F2F96BB
:10575000AEADBFAD2F972C91DC018C91281BEE0FC5
:10576000FF1FE957FE4F6196AEADBFAD61978C91BB
:105770009589891B8802C00111242202800D911D88
:1057800011240E944F07893208F0B7CF28E2382F42
:10579000231B08F420E0F801EF56FD4F213108F0FB
:1057A00020E13081320F08F43FEF3083A6CF0B2D7C
:1057B00010E0E3B1E2FBEE27E0F94C9992C080E003
:1057C0008E2BD801A05CBD4FEC919E2F9370891752
:1057D00009F485C0EE0FEE0FE82BEC93EF70F0E0CC
:1057E000E05AFE4F9801225C3D4F79018081D9013A
:1057F0009C91890F8C9320E084308CF1F801E35C5C
:10580000FD4F80818F5F80830E948D04BBAA6CAAAC
:105810008DAA8160782F9FAB8EAB4B2D5CEF61E042
:105820008FA90E948125EFE3FFE13197F1F700C0D6
:1058300000000E948D04B8AE69AE1AAE8160782F68
:105840009CAF8BAF4B2D5CEF60E08CAD0E9481254F
:105850008FE39FE10197F1F700C0000021E0D7013D
:105860008C918D3F8CF5F801E35CFD4F8081815078
:1058700080830E948D04B9A69AA68BA68160782F9A
:105880009DA78CA74B2D5DEF61E08DA50E94812522
:10589000EFE3FFE13197F1F700C000000E948D04B3
:1058A000BEA69FA618AA8160782F9AAB89AB4B2D14
:1058B0005DEF60E08AA90E9481258FE39FE1019757
:1058C000F1F700C0000021E0D7018C91082E000CF8
:1058D000990BB6010E941130F7018083A22AB3947C
:1058E00050CE82E06DCF8091F100D8018D938D0173
:1058F000B1E0EB1AF10809F476CE8091E80085FD5D
:10590000F2CF8091E8008B778093E8000E94F70245
:10591000882399F368CE893009F4F7C108F053C0A1
:10592000843009F4FEC058F4823009F4A0C008F0B5
:10593000E9C0813009F497C08FEF8983A9C0863010
:1059400009F405C108F4F8C0873009F403C18830B0
:1059500099F78A81823409F4A5C108F06DC18034B9
:1059600009F49AC1813409F093C080916503982F9E
:105970009370C1F08695869590E02CE332E060EB61
:1059800072E0F9013296A591B491F9010591149153
:10599000502F412F8A179B0739F02C5F3F4F62171A
:1059A000730779F750E040E05B834C838091690393
:1059B0008D83809166038E83809167038F838091AE
:1059C0006803888765C0803109F4D2C108F03FC000
:1059D0008D3009F49DC130F48C3009F0ADCF80E1F9
:1059E0008A8356C08E3009F497C18F3009F0A4CF56
:1059F0008091150190911601892B09F449C08C8181
:105A0000C82ED12C2DE1C216D10408F041C00A8164
:105A10001B81102701271027AE014F5F5F4F7A01CE
:105A2000C00ED11EC80189529F4F0C151D0581F172
:105A3000093253E0150728F4D70114966C910E949F
:105A40001931BFEFEB1AFB0A0F5F1F4FEBCF82310B
:105A500009F493C108F48FC1833109F4B8C18E3FB2
:105A600009F06ACFDCCD1A8289E08B8311C08A816C
:105A7000823009F4BAC2833091F1813009F05CCFF1
:105A80000E9481040E942B306B837C838D839E83D4
:105A900080915703843009F017CC1091E9001F70F2
:105AA0009091EC00892F817090FD80E8182B82E0A6
:105AB0008093E9008091E80080FF0DC050E040E055
:105AC00060E270E0CE0101960E9428038091E80018
:105AD0008E778093E8001F701093E900F5CB8091DA
